{
  "contracts/WeatherBet.sol": {
    "WeatherBet": {
      "abi": [
        {
          "inputs": [],
          "stateMutability": "nonpayable",
          "type": "constructor"
        },
        {
          "inputs": [],
          "name": "cancelBet",
          "outputs": [],
          "stateMutability": "nonpayable",
          "type": "function"
        },
        {
          "inputs": [],
          "name": "createdTime",
          "outputs": [
            {
              "internalType": "uint256",
              "name": "",
              "type": "uint256"
            }
          ],
          "stateMutability": "view",
          "type": "function"
        },
        {
          "inputs": [],
          "name": "destroy",
          "outputs": [],
          "stateMutability": "nonpayable",
          "type": "function"
        },
        {
          "inputs": [],
          "name": "enterWithNoRain",
          "outputs": [],
          "stateMutability": "payable",
          "type": "function"
        },
        {
          "inputs": [],
          "name": "enterWithRain",
          "outputs": [],
          "stateMutability": "payable",
          "type": "function"
        },
        {
          "inputs": [],
          "name": "finalWeather",
          "outputs": [
            {
              "internalType": "uint8",
              "name": "",
              "type": "uint8"
            }
          ],
          "stateMutability": "view",
          "type": "function"
        },
        {
          "inputs": [],
          "name": "manager",
          "outputs": [
            {
              "internalType": "address",
              "name": "",
              "type": "address"
            }
          ],
          "stateMutability": "view",
          "type": "function"
        },
        {
          "inputs": [
            {
              "internalType": "uint256",
              "name": "",
              "type": "uint256"
            }
          ],
          "name": "noRainBetsAmount",
          "outputs": [
            {
              "internalType": "uint256",
              "name": "",
              "type": "uint256"
            }
          ],
          "stateMutability": "view",
          "type": "function"
        },
        {
          "inputs": [
            {
              "internalType": "uint256",
              "name": "",
              "type": "uint256"
            }
          ],
          "name": "noRainBetsPlayers",
          "outputs": [
            {
              "internalType": "address payable",
              "name": "",
              "type": "address"
            }
          ],
          "stateMutability": "view",
          "type": "function"
        },
        {
          "inputs": [
            {
              "internalType": "uint8",
              "name": "_finalWeather",
              "type": "uint8"
            }
          ],
          "name": "payout",
          "outputs": [],
          "stateMutability": "nonpayable",
          "type": "function"
        },
        {
          "inputs": [
            {
              "internalType": "uint256",
              "name": "",
              "type": "uint256"
            }
          ],
          "name": "rainBetsAmount",
          "outputs": [
            {
              "internalType": "uint256",
              "name": "",
              "type": "uint256"
            }
          ],
          "stateMutability": "view",
          "type": "function"
        },
        {
          "inputs": [
            {
              "internalType": "uint256",
              "name": "",
              "type": "uint256"
            }
          ],
          "name": "rainBetsPlayers",
          "outputs": [
            {
              "internalType": "address payable",
              "name": "",
              "type": "address"
            }
          ],
          "stateMutability": "view",
          "type": "function"
        },
        {
          "inputs": [],
          "name": "totalBetsonNoRain",
          "outputs": [
            {
              "internalType": "uint256",
              "name": "",
              "type": "uint256"
            }
          ],
          "stateMutability": "view",
          "type": "function"
        },
        {
          "inputs": [],
          "name": "totalBetsonRain",
          "outputs": [
            {
              "internalType": "uint256",
              "name": "",
              "type": "uint256"
            }
          ],
          "stateMutability": "view",
          "type": "function"
        }
      ],
      "evm": {
        "bytecode": {
          "linkReferences": {},
          "object": "608060405262015180600055662386f26fc100006001556002805461ffff191661020117905534801561003157600080fd5b506002805462010000600160b01b03191633620100000217905542600355610ce28061005e6000396000f3fe6080604052600436106100dd5760003560e01c80638c5072551161007f578063bc0bdba311610059578063bc0bdba31461021f578063c3ad97071461023f578063c5fd09e114610255578063d1f19d0a1461025d57600080fd5b80638c507255146101c7578063b2f4bdb0146101f3578063b5ec36491461020957600080fd5b8063481c6a75116100bb578063481c6a75146101495780637b6d79f11461016f578063828c3fdc1461018457806383197ef0146101b257600080fd5b8063153f2b4b146100e2578063376802d614610104578063376f86b014610141575b600080fd5b3480156100ee57600080fd5b506101026100fd366004610bc5565b61027d565b005b34801561011057600080fd5b5061012461011f366004610bad565b61044c565b6040516001600160a01b0390911681526020015b60405180910390f35b610102610476565b34801561015557600080fd5b50600254610124906201000090046001600160a01b031681565b34801561017b57600080fd5b506101026105b4565b34801561019057600080fd5b506101a461019f366004610bad565b6105fe565b604051908152602001610138565b3480156101be57600080fd5b5061010261061f565b3480156101d357600080fd5b50600a546101e19060ff1681565b60405160ff9091168152602001610138565b3480156101ff57600080fd5b506101a460035481565b34801561021557600080fd5b506101a460065481565b34801561022b57600080fd5b506101a461023a366004610bad565b610673565b34801561024b57600080fd5b506101a460095481565b610102610683565b34801561026957600080fd5b50610124610278366004610bad565b6107ba565b6002546201000090046001600160a01b031633146102b65760405162461bcd60e51b81526004016102ad90610bed565b60405180910390fd5b600a805460ff191660ff83161790556102cd6107ca565b6103255760405162461bcd60e51b815260206004820152602360248201527f5765617468657220686173206e6f74206265656e20616e6e6f756e636564207960448201526232ba1760e91b60648201526084016102ad565b6000610336600a5460ff1660011490565b610341576007610344565b60045b90506000610357600a5460ff1660011490565b610362576008610365565b60055b905060005b825481101561044657600083828154811061039557634e487b7160e01b600052603260045260246000fd5b600091825260208220015484546001600160a01b0390911692508490849081106103cf57634e487b7160e01b600052603260045260246000fd5b9060005260206000200154905060006103f6826103f1600a5460ff1660011490565b6107fa565b6040519091506001600160a01b0384169082156108fc029083906000818181858888f1935050505015801561042f573d6000803e3d6000fd5b50505050808061043e90610c7b565b91505061036a565b50505050565b6007818154811061045c57600080fd5b6000918252602090912001546001600160a01b0316905081565b6001543410156104c85760405162461bcd60e51b815260206004820152601a60248201527f4d696e696d756d2062657420697320302e30312065746865722e00000000000060448201526064016102ad565b6000546003546104d89190610c24565b4211156105275760405162461bcd60e51b815260206004820152601e60248201527f54696d6520657870697265642e20416374696f6e2072656a65637465642e000060448201526064016102ad565b6004805460018181019092557f8a35acfbc15ff81a39ae7d344fd709f28e8600b4aa8c65c6b64bfe7fe36bd19b0180546001600160a01b031916331790556005805491820181556000908152347f036b6384b5eca791c62761152d0c79bb0604c104a5fb6f4eb0703f3154bb3db0909201829055600680549091906105ad908490610c24565b9091555050565b6002546201000090046001600160a01b031633146105e45760405162461bcd60e51b81526004016102ad90610bed565b6105ec61084d565b6105f4610943565b6105fc610a34565b565b6005818154811061060e57600080fd5b600091825260209091200154905081565b6002546201000090046001600160a01b0316331461064f5760405162461bcd60e51b81526004016102ad90610bed565b61065761084d565b61065f610943565b6002546201000090046001600160a01b0316ff5b6008818154811061060e57600080fd5b6001543410156106d55760405162461bcd60e51b815260206004820152601a60248201527f4d696e696d756d2062657420697320302e30312065746865722e00000000000060448201526064016102ad565b6000546003546106e59190610c24565b4211156107345760405162461bcd60e51b815260206004820152601e60248201527f54696d6520657870697265642e20416374696f6e2072656a65637465642e000060448201526064016102ad565b6007805460018181019092557fa66cc928b5edb82af9bd49922954155ab7b0942694bea4ce44661d9a8736c6880180546001600160a01b031916331790556008805491820181556000908152347ff3f7a9fe364faab93b216da50a3214154f22a0a2b415b23a84c8169e8b636ee3909201829055600980549091906105ad908490610c24565b6004818154811061045c57600080fd5b600254600a5460009160ff918216911614806107f55750600254600a5460ff90811661010090920416145b905090565b6000808261080a5760065461080e565b6009545b905060008361081f57600954610823565b6006545b9050806108308684610c5c565b61083a9190610c3c565b6108449086610c24565b95945050505050565b6002546201000090046001600160a01b0316331461087d5760405162461bcd60e51b81526004016102ad90610bed565b600080805b60045483101561093e57600483815481106108ad57634e487b7160e01b600052603260045260246000fd5b600091825260209091200154600580546001600160a01b03909216925090849081106108e957634e487b7160e01b600052603260045260246000fd5b60009182526020822001546040519093506001600160a01b0383169184156108fc02918591818181858888f1935050505015801561092b573d6000803e3d6000fd5b508261093681610c7b565b935050610882565b505050565b6002546201000090046001600160a01b031633146109735760405162461bcd60e51b81526004016102ad90610bed565b600080805b60075483101561093e57600783815481106109a357634e487b7160e01b600052603260045260246000fd5b600091825260209091200154600880546001600160a01b03909216925090849081106109df57634e487b7160e01b600052603260045260246000fd5b60009182526020822001546040519093506001600160a01b0383169184156108fc02918591818181858888f19350505050158015610a21573d6000803e3d6000fd5b5082610a2c81610c7b565b935050610978565b6002546201000090046001600160a01b03163314610a645760405162461bcd60e51b81526004016102ad90610bed565b6040805160008152602081019182905251610a8191600491610af8565b506040805160008152602081019182905251610a9f91600591610b5d565b50600060068190556040805191825260208201908190529051610ac491600791610af8565b506040805160008152602081019182905251610ae291600891610b5d565b506000600955600a805460ff1916905542600355565b828054828255906000526020600020908101928215610b4d579160200282015b82811115610b4d57825182546001600160a01b0319166001600160a01b03909116178255602090920191600190910190610b18565b50610b59929150610b98565b5090565b828054828255906000526020600020908101928215610b4d579160200282015b82811115610b4d578251825591602001919060010190610b7d565b5b80821115610b595760008155600101610b99565b600060208284031215610bbe578081fd5b5035919050565b600060208284031215610bd6578081fd5b813560ff81168114610be6578182fd5b9392505050565b60208082526018908201527f596f7520617265206e6f7420746865206d616e616765722e0000000000000000604082015260600190565b60008219821115610c3757610c37610c96565b500190565b600082610c5757634e487b7160e01b81526012600452602481fd5b500490565b6000816000190483118215151615610c7657610c76610c96565b500290565b6000600019821415610c8f57610c8f610c96565b5060010190565b634e487b7160e01b600052601160045260246000fdfea264697066735822122086b8d159bda663ba5ca73a109d6abb910964a666c5391a1d30235e2627d438aa64736f6c63430008040033",
          "opcodes": "PUSH1 0x80 PUSH1 0x40 MSTORE PUSH3 0x15180 PUSH1 0x0 SSTORE PUSH7 0x2386F26FC10000 PUSH1 0x1 SSTORE PUSH1 0x2 DUP1 SLOAD PUSH2 0xFFFF NOT AND PUSH2 0x201 OR SWAP1 SSTORE CALLVALUE DUP1 ISZERO PUSH2 0x31 JUMPI PUSH1 0x0 DUP1 REVERT JUMPDEST POP PUSH1 0x2 DUP1 SLOAD PUSH3 0x10000 PUSH1 0x1 PUSH1 0xB0 SHL SUB NOT AND CALLER PUSH3 0x10000 MUL OR SWAP1 SSTORE TIMESTAMP PUSH1 0x3 SSTORE PUSH2 0xCE2 DUP1 PUSH2 0x5E PUSH1 0x0 CODECOPY PUSH1 0x0 RETURN INVALID PUSH1 0x80 PUSH1 0x40 MSTORE PUSH1 0x4 CALLDATASIZE LT PUSH2 0xDD JUMPI PUSH1 0x0 CALLDATALOAD PUSH1 0xE0 SHR DUP1 PUSH4 0x8C507255 GT PUSH2 0x7F JUMPI DUP1 PUSH4 0xBC0BDBA3 GT PUSH2 0x59 JUMPI DUP1 PUSH4 0xBC0BDBA3 EQ PUSH2 0x21F JUMPI DUP1 PUSH4 0xC3AD9707 EQ PUSH2 0x23F JUMPI DUP1 PUSH4 0xC5FD09E1 EQ PUSH2 0x255 JUMPI DUP1 PUSH4 0xD1F19D0A EQ PUSH2 0x25D JUMPI PUSH1 0x0 DUP1 REVERT JUMPDEST DUP1 PUSH4 0x8C507255 EQ PUSH2 0x1C7 JUMPI DUP1 PUSH4 0xB2F4BDB0 EQ PUSH2 0x1F3 JUMPI DUP1 PUSH4 0xB5EC3649 EQ PUSH2 0x209 JUMPI PUSH1 0x0 DUP1 REVERT JUMPDEST DUP1 PUSH4 0x481C6A75 GT PUSH2 0xBB JUMPI DUP1 PUSH4 0x481C6A75 EQ PUSH2 0x149 JUMPI DUP1 PUSH4 0x7B6D79F1 EQ PUSH2 0x16F JUMPI DUP1 PUSH4 0x828C3FDC EQ PUSH2 0x184 JUMPI DUP1 PUSH4 0x83197EF0 EQ PUSH2 0x1B2 JUMPI PUSH1 0x0 DUP1 REVERT JUMPDEST DUP1 PUSH4 0x153F2B4B EQ PUSH2 0xE2 JUMPI DUP1 PUSH4 0x376802D6 EQ PUSH2 0x104 JUMPI DUP1 PUSH4 0x376F86B0 EQ PUSH2 0x141 JUMPI JUMPDEST PUSH1 0x0 DUP1 REVERT JUMPDEST CALLVALUE DUP1 ISZERO PUSH2 0xEE JUMPI PUSH1 0x0 DUP1 REVERT JUMPDEST POP PUSH2 0x102 PUSH2 0xFD CALLDATASIZE PUSH1 0x4 PUSH2 0xBC5 JUMP JUMPDEST PUSH2 0x27D JUMP JUMPDEST STOP JUMPDEST CALLVALUE DUP1 ISZERO PUSH2 0x110 JUMPI PUSH1 0x0 DUP1 REVERT JUMPDEST POP PUSH2 0x124 PUSH2 0x11F CALLDATASIZE PUSH1 0x4 PUSH2 0xBAD JUMP JUMPDEST PUSH2 0x44C JUMP JUMPDEST PUSH1 0x40 MLOAD PUSH1 0x1 PUSH1 0x1 PUSH1 0xA0 SHL SUB SWAP1 SWAP2 AND DUP2 MSTORE PUSH1 0x20 ADD JUMPDEST PUSH1 0x40 MLOAD DUP1 SWAP2 SUB SWAP1 RETURN JUMPDEST PUSH2 0x102 PUSH2 0x476 JUMP JUMPDEST CALLVALUE DUP1 ISZERO PUSH2 0x155 JUMPI PUSH1 0x0 DUP1 REVERT JUMPDEST POP PUSH1 0x2 SLOAD PUSH2 0x124 SWAP1 PUSH3 0x10000 SWAP1 DIV PUSH1 0x1 PUSH1 0x1 PUSH1 0xA0 SHL SUB AND DUP2 JUMP JUMPDEST CALLVALUE DUP1 ISZERO PUSH2 0x17B JUMPI PUSH1 0x0 DUP1 REVERT JUMPDEST POP PUSH2 0x102 PUSH2 0x5B4 JUMP JUMPDEST CALLVALUE DUP1 ISZERO PUSH2 0x190 JUMPI PUSH1 0x0 DUP1 REVERT JUMPDEST POP PUSH2 0x1A4 PUSH2 0x19F CALLDATASIZE PUSH1 0x4 PUSH2 0xBAD JUMP JUMPDEST PUSH2 0x5FE JUMP JUMPDEST PUSH1 0x40 MLOAD SWAP1 DUP2 MSTORE PUSH1 0x20 ADD PUSH2 0x138 JUMP JUMPDEST CALLVALUE DUP1 ISZERO PUSH2 0x1BE JUMPI PUSH1 0x0 DUP1 REVERT JUMPDEST POP PUSH2 0x102 PUSH2 0x61F JUMP JUMPDEST CALLVALUE DUP1 ISZERO PUSH2 0x1D3 JUMPI PUSH1 0x0 DUP1 REVERT JUMPDEST POP PUSH1 0xA SLOAD PUSH2 0x1E1 SWAP1 PUSH1 0xFF AND DUP2 JUMP JUMPDEST PUSH1 0x40 MLOAD PUSH1 0xFF SWAP1 SWAP2 AND DUP2 MSTORE PUSH1 0x20 ADD PUSH2 0x138 JUMP JUMPDEST CALLVALUE DUP1 ISZERO PUSH2 0x1FF JUMPI PUSH1 0x0 DUP1 REVERT JUMPDEST POP PUSH2 0x1A4 PUSH1 0x3 SLOAD DUP2 JUMP JUMPDEST CALLVALUE DUP1 ISZERO PUSH2 0x215 JUMPI PUSH1 0x0 DUP1 REVERT JUMPDEST POP PUSH2 0x1A4 PUSH1 0x6 SLOAD DUP2 JUMP JUMPDEST CALLVALUE DUP1 ISZERO PUSH2 0x22B JUMPI PUSH1 0x0 DUP1 REVERT JUMPDEST POP PUSH2 0x1A4 PUSH2 0x23A CALLDATASIZE PUSH1 0x4 PUSH2 0xBAD JUMP JUMPDEST PUSH2 0x673 JUMP JUMPDEST CALLVALUE DUP1 ISZERO PUSH2 0x24B JUMPI PUSH1 0x0 DUP1 REVERT JUMPDEST POP PUSH2 0x1A4 PUSH1 0x9 SLOAD DUP2 JUMP JUMPDEST PUSH2 0x102 PUSH2 0x683 JUMP JUMPDEST CALLVALUE DUP1 ISZERO PUSH2 0x269 JUMPI PUSH1 0x0 DUP1 REVERT JUMPDEST POP PUSH2 0x124 PUSH2 0x278 CALLDATASIZE PUSH1 0x4 PUSH2 0xBAD JUMP JUMPDEST PUSH2 0x7BA JUMP JUMPDEST PUSH1 0x2 SLOAD PUSH3 0x10000 SWAP1 DIV PUSH1 0x1 PUSH1 0x1 PUSH1 0xA0 SHL SUB AND CALLER EQ PUSH2 0x2B6 JUMPI PUSH1 0x40 MLOAD PUSH3 0x461BCD PUSH1 0xE5 SHL DUP2 MSTORE PUSH1 0x4 ADD PUSH2 0x2AD SWAP1 PUSH2 0xBED JUMP JUMPDEST PUSH1 0x40 MLOAD DUP1 SWAP2 SUB SWAP1 REVERT JUMPDEST PUSH1 0xA DUP1 SLOAD PUSH1 0xFF NOT AND PUSH1 0xFF DUP4 AND OR SWAP1 SSTORE PUSH2 0x2CD PUSH2 0x7CA JUMP JUMPDEST PUSH2 0x325 JUMPI PUSH1 0x40 MLOAD PUSH3 0x461BCD PUSH1 0xE5 SHL DUP2 MSTORE PUSH1 0x20 PUSH1 0x4 DUP3 ADD MSTORE PUSH1 0x23 PUSH1 0x24 DUP3 ADD MSTORE PUSH32 0x5765617468657220686173206E6F74206265656E20616E6E6F756E6365642079 PUSH1 0x44 DUP3 ADD MSTORE PUSH3 0x32BA17 PUSH1 0xE9 SHL PUSH1 0x64 DUP3 ADD MSTORE PUSH1 0x84 ADD PUSH2 0x2AD JUMP JUMPDEST PUSH1 0x0 PUSH2 0x336 PUSH1 0xA SLOAD PUSH1 0xFF AND PUSH1 0x1 EQ SWAP1 JUMP JUMPDEST PUSH2 0x341 JUMPI PUSH1 0x7 PUSH2 0x344 JUMP JUMPDEST PUSH1 0x4 JUMPDEST SWAP1 POP PUSH1 0x0 PUSH2 0x357 PUSH1 0xA SLOAD PUSH1 0xFF AND PUSH1 0x1 EQ SWAP1 JUMP JUMPDEST PUSH2 0x362 JUMPI PUSH1 0x8 PUSH2 0x365 JUMP JUMPDEST PUSH1 0x5 JUMPDEST SWAP1 POP PUSH1 0x0 JUMPDEST DUP3 SLOAD DUP2 LT ISZERO PUSH2 0x446 JUMPI PUSH1 0x0 DUP4 DUP3 DUP2 SLOAD DUP2 LT PUSH2 0x395 JUMPI PUSH4 0x4E487B71 PUSH1 0xE0 SHL PUSH1 0x0 MSTORE PUSH1 0x32 PUSH1 0x4 MSTORE PUSH1 0x24 PUSH1 0x0 REVERT JUMPDEST PUSH1 0x0 SWAP2 DUP3 MSTORE PUSH1 0x20 DUP3 KECCAK256 ADD SLOAD DUP5 SLOAD PUSH1 0x1 PUSH1 0x1 PUSH1 0xA0 SHL SUB SWAP1 SWAP2 AND SWAP3 POP DUP5 SWAP1 DUP5 SWAP1 DUP2 LT PUSH2 0x3CF JUMPI PUSH4 0x4E487B71 PUSH1 0xE0 SHL PUSH1 0x0 MSTORE PUSH1 0x32 PUSH1 0x4 MSTORE PUSH1 0x24 PUSH1 0x0 REVERT JUMPDEST SWAP1 PUSH1 0x0 MSTORE PUSH1 0x20 PUSH1 0x0 KECCAK256 ADD SLOAD SWAP1 POP PUSH1 0x0 PUSH2 0x3F6 DUP3 PUSH2 0x3F1 PUSH1 0xA SLOAD PUSH1 0xFF AND PUSH1 0x1 EQ SWAP1 JUMP JUMPDEST PUSH2 0x7FA JUMP JUMPDEST PUSH1 0x40 MLOAD SWAP1 SWAP2 POP PUSH1 0x1 PUSH1 0x1 PUSH1 0xA0 SHL SUB DUP5 AND SWAP1 DUP3 ISZERO PUSH2 0x8FC MUL SWAP1 DUP4 SWAP1 PUSH1 0x0 DUP2 DUP2 DUP2 DUP6 DUP9 DUP9 CALL SWAP4 POP POP POP POP ISZERO DUP1 ISZERO PUSH2 0x42F JUMPI RETURNDATASIZE PUSH1 0x0 DUP1 RETURNDATACOPY RETURNDATASIZE PUSH1 0x0 REVERT JUMPDEST POP POP POP POP DUP1 DUP1 PUSH2 0x43E SWAP1 PUSH2 0xC7B JUMP JUMPDEST SWAP2 POP POP PUSH2 0x36A JUMP JUMPDEST POP POP POP POP JUMP JUMPDEST PUSH1 0x7 DUP2 DUP2 SLOAD DUP2 LT PUSH2 0x45C JUMPI PUSH1 0x0 DUP1 REVERT JUMPDEST PUSH1 0x0 SWAP2 DUP3 MSTORE PUSH1 0x20 SWAP1 SWAP2 KECCAK256 ADD SLOAD PUSH1 0x1 PUSH1 0x1 PUSH1 0xA0 SHL SUB AND SWAP1 POP DUP2 JUMP JUMPDEST PUSH1 0x1 SLOAD CALLVALUE LT ISZERO PUSH2 0x4C8 JUMPI PUSH1 0x40 MLOAD PUSH3 0x461BCD PUSH1 0xE5 SHL DUP2 MSTORE PUSH1 0x20 PUSH1 0x4 DUP3 ADD MSTORE PUSH1 0x1A PUSH1 0x24 DUP3 ADD MSTORE PUSH32 0x4D696E696D756D2062657420697320302E30312065746865722E000000000000 PUSH1 0x44 DUP3 ADD MSTORE PUSH1 0x64 ADD PUSH2 0x2AD JUMP JUMPDEST PUSH1 0x0 SLOAD PUSH1 0x3 SLOAD PUSH2 0x4D8 SWAP2 SWAP1 PUSH2 0xC24 JUMP JUMPDEST TIMESTAMP GT ISZERO PUSH2 0x527 JUMPI PUSH1 0x40 MLOAD PUSH3 0x461BCD PUSH1 0xE5 SHL DUP2 MSTORE PUSH1 0x20 PUSH1 0x4 DUP3 ADD MSTORE PUSH1 0x1E PUSH1 0x24 DUP3 ADD MSTORE PUSH32 0x54696D6520657870697265642E20416374696F6E2072656A65637465642E0000 PUSH1 0x44 DUP3 ADD MSTORE PUSH1 0x64 ADD PUSH2 0x2AD JUMP JUMPDEST PUSH1 0x4 DUP1 SLOAD PUSH1 0x1 DUP2 DUP2 ADD SWAP1 SWAP3 SSTORE PUSH32 0x8A35ACFBC15FF81A39AE7D344FD709F28E8600B4AA8C65C6B64BFE7FE36BD19B ADD DUP1 SLOAD PUSH1 0x1 PUSH1 0x1 PUSH1 0xA0 SHL SUB NOT AND CALLER OR SWAP1 SSTORE PUSH1 0x5 DUP1 SLOAD SWAP2 DUP3 ADD DUP2 SSTORE PUSH1 0x0 SWAP1 DUP2 MSTORE CALLVALUE PUSH32 0x36B6384B5ECA791C62761152D0C79BB0604C104A5FB6F4EB0703F3154BB3DB0 SWAP1 SWAP3 ADD DUP3 SWAP1 SSTORE PUSH1 0x6 DUP1 SLOAD SWAP1 SWAP2 SWAP1 PUSH2 0x5AD SWAP1 DUP5 SWAP1 PUSH2 0xC24 JUMP JUMPDEST SWAP1 SWAP2 SSTORE POP POP JUMP JUMPDEST PUSH1 0x2 SLOAD PUSH3 0x10000 SWAP1 DIV PUSH1 0x1 PUSH1 0x1 PUSH1 0xA0 SHL SUB AND CALLER EQ PUSH2 0x5E4 JUMPI PUSH1 0x40 MLOAD PUSH3 0x461BCD PUSH1 0xE5 SHL DUP2 MSTORE PUSH1 0x4 ADD PUSH2 0x2AD SWAP1 PUSH2 0xBED JUMP JUMPDEST PUSH2 0x5EC PUSH2 0x84D JUMP JUMPDEST PUSH2 0x5F4 PUSH2 0x943 JUMP JUMPDEST PUSH2 0x5FC PUSH2 0xA34 JUMP JUMPDEST JUMP JUMPDEST PUSH1 0x5 DUP2 DUP2 SLOAD DUP2 LT PUSH2 0x60E JUMPI PUSH1 0x0 DUP1 REVERT JUMPDEST PUSH1 0x0 SWAP2 DUP3 MSTORE PUSH1 0x20 SWAP1 SWAP2 KECCAK256 ADD SLOAD SWAP1 POP DUP2 JUMP JUMPDEST PUSH1 0x2 SLOAD PUSH3 0x10000 SWAP1 DIV PUSH1 0x1 PUSH1 0x1 PUSH1 0xA0 SHL SUB AND CALLER EQ PUSH2 0x64F JUMPI PUSH1 0x40 MLOAD PUSH3 0x461BCD PUSH1 0xE5 SHL DUP2 MSTORE PUSH1 0x4 ADD PUSH2 0x2AD SWAP1 PUSH2 0xBED JUMP JUMPDEST PUSH2 0x657 PUSH2 0x84D JUMP JUMPDEST PUSH2 0x65F PUSH2 0x943 JUMP JUMPDEST PUSH1 0x2 SLOAD PUSH3 0x10000 SWAP1 DIV PUSH1 0x1 PUSH1 0x1 PUSH1 0xA0 SHL SUB AND SELFDESTRUCT JUMPDEST PUSH1 0x8 DUP2 DUP2 SLOAD DUP2 LT PUSH2 0x60E JUMPI PUSH1 0x0 DUP1 REVERT JUMPDEST PUSH1 0x1 SLOAD CALLVALUE LT ISZERO PUSH2 0x6D5 JUMPI PUSH1 0x40 MLOAD PUSH3 0x461BCD PUSH1 0xE5 SHL DUP2 MSTORE PUSH1 0x20 PUSH1 0x4 DUP3 ADD MSTORE PUSH1 0x1A PUSH1 0x24 DUP3 ADD MSTORE PUSH32 0x4D696E696D756D2062657420697320302E30312065746865722E000000000000 PUSH1 0x44 DUP3 ADD MSTORE PUSH1 0x64 ADD PUSH2 0x2AD JUMP JUMPDEST PUSH1 0x0 SLOAD PUSH1 0x3 SLOAD PUSH2 0x6E5 SWAP2 SWAP1 PUSH2 0xC24 JUMP JUMPDEST TIMESTAMP GT ISZERO PUSH2 0x734 JUMPI PUSH1 0x40 MLOAD PUSH3 0x461BCD PUSH1 0xE5 SHL DUP2 MSTORE PUSH1 0x20 PUSH1 0x4 DUP3 ADD MSTORE PUSH1 0x1E PUSH1 0x24 DUP3 ADD MSTORE PUSH32 0x54696D6520657870697265642E20416374696F6E2072656A65637465642E0000 PUSH1 0x44 DUP3 ADD MSTORE PUSH1 0x64 ADD PUSH2 0x2AD JUMP JUMPDEST PUSH1 0x7 DUP1 SLOAD PUSH1 0x1 DUP2 DUP2 ADD SWAP1 SWAP3 SSTORE PUSH32 0xA66CC928B5EDB82AF9BD49922954155AB7B0942694BEA4CE44661D9A8736C688 ADD DUP1 SLOAD PUSH1 0x1 PUSH1 0x1 PUSH1 0xA0 SHL SUB NOT AND CALLER OR SWAP1 SSTORE PUSH1 0x8 DUP1 SLOAD SWAP2 DUP3 ADD DUP2 SSTORE PUSH1 0x0 SWAP1 DUP2 MSTORE CALLVALUE PUSH32 0xF3F7A9FE364FAAB93B216DA50A3214154F22A0A2B415B23A84C8169E8B636EE3 SWAP1 SWAP3 ADD DUP3 SWAP1 SSTORE PUSH1 0x9 DUP1 SLOAD SWAP1 SWAP2 SWAP1 PUSH2 0x5AD SWAP1 DUP5 SWAP1 PUSH2 0xC24 JUMP JUMPDEST PUSH1 0x4 DUP2 DUP2 SLOAD DUP2 LT PUSH2 0x45C JUMPI PUSH1 0x0 DUP1 REVERT JUMPDEST PUSH1 0x2 SLOAD PUSH1 0xA SLOAD PUSH1 0x0 SWAP2 PUSH1 0xFF SWAP2 DUP3 AND SWAP2 AND EQ DUP1 PUSH2 0x7F5 JUMPI POP PUSH1 0x2 SLOAD PUSH1 0xA SLOAD PUSH1 0xFF SWAP1 DUP2 AND PUSH2 0x100 SWAP1 SWAP3 DIV AND EQ JUMPDEST SWAP1 POP SWAP1 JUMP JUMPDEST PUSH1 0x0 DUP1 DUP3 PUSH2 0x80A JUMPI PUSH1 0x6 SLOAD PUSH2 0x80E JUMP JUMPDEST PUSH1 0x9 SLOAD JUMPDEST SWAP1 POP PUSH1 0x0 DUP4 PUSH2 0x81F JUMPI PUSH1 0x9 SLOAD PUSH2 0x823 JUMP JUMPDEST PUSH1 0x6 SLOAD JUMPDEST SWAP1 POP DUP1 PUSH2 0x830 DUP7 DUP5 PUSH2 0xC5C JUMP JUMPDEST PUSH2 0x83A SWAP2 SWAP1 PUSH2 0xC3C JUMP JUMPDEST PUSH2 0x844 SWAP1 DUP7 PUSH2 0xC24 JUMP JUMPDEST SWAP6 SWAP5 POP POP POP POP POP JUMP JUMPDEST PUSH1 0x2 SLOAD PUSH3 0x10000 SWAP1 DIV PUSH1 0x1 PUSH1 0x1 PUSH1 0xA0 SHL SUB AND CALLER EQ PUSH2 0x87D JUMPI PUSH1 0x40 MLOAD PUSH3 0x461BCD PUSH1 0xE5 SHL DUP2 MSTORE PUSH1 0x4 ADD PUSH2 0x2AD SWAP1 PUSH2 0xBED JUMP JUMPDEST PUSH1 0x0 DUP1 DUP1 JUMPDEST PUSH1 0x4 SLOAD DUP4 LT ISZERO PUSH2 0x93E JUMPI PUSH1 0x4 DUP4 DUP2 SLOAD DUP2 LT PUSH2 0x8AD JUMPI PUSH4 0x4E487B71 PUSH1 0xE0 SHL PUSH1 0x0 MSTORE PUSH1 0x32 PUSH1 0x4 MSTORE PUSH1 0x24 PUSH1 0x0 REVERT JUMPDEST PUSH1 0x0 SWAP2 DUP3 MSTORE PUSH1 0x20 SWAP1 SWAP2 KECCAK256 ADD SLOAD PUSH1 0x5 DUP1 SLOAD PUSH1 0x1 PUSH1 0x1 PUSH1 0xA0 SHL SUB SWAP1 SWAP3 AND SWAP3 POP SWAP1 DUP5 SWAP1 DUP2 LT PUSH2 0x8E9 JUMPI PUSH4 0x4E487B71 PUSH1 0xE0 SHL PUSH1 0x0 MSTORE PUSH1 0x32 PUSH1 0x4 MSTORE PUSH1 0x24 PUSH1 0x0 REVERT JUMPDEST PUSH1 0x0 SWAP2 DUP3 MSTORE PUSH1 0x20 DUP3 KECCAK256 ADD SLOAD PUSH1 0x40 MLOAD SWAP1 SWAP4 POP PUSH1 0x1 PUSH1 0x1 PUSH1 0xA0 SHL SUB DUP4 AND SWAP2 DUP5 ISZERO PUSH2 0x8FC MUL SWAP2 DUP6 SWAP2 DUP2 DUP2 DUP2 DUP6 DUP9 DUP9 CALL SWAP4 POP POP POP POP ISZERO DUP1 ISZERO PUSH2 0x92B JUMPI RETURNDATASIZE PUSH1 0x0 DUP1 RETURNDATACOPY RETURNDATASIZE PUSH1 0x0 REVERT JUMPDEST POP DUP3 PUSH2 0x936 DUP2 PUSH2 0xC7B JUMP JUMPDEST SWAP4 POP POP PUSH2 0x882 JUMP JUMPDEST POP POP POP JUMP JUMPDEST PUSH1 0x2 SLOAD PUSH3 0x10000 SWAP1 DIV PUSH1 0x1 PUSH1 0x1 PUSH1 0xA0 SHL SUB AND CALLER EQ PUSH2 0x973 JUMPI PUSH1 0x40 MLOAD PUSH3 0x461BCD PUSH1 0xE5 SHL DUP2 MSTORE PUSH1 0x4 ADD PUSH2 0x2AD SWAP1 PUSH2 0xBED JUMP JUMPDEST PUSH1 0x0 DUP1 DUP1 JUMPDEST PUSH1 0x7 SLOAD DUP4 LT ISZERO PUSH2 0x93E JUMPI PUSH1 0x7 DUP4 DUP2 SLOAD DUP2 LT PUSH2 0x9A3 JUMPI PUSH4 0x4E487B71 PUSH1 0xE0 SHL PUSH1 0x0 MSTORE PUSH1 0x32 PUSH1 0x4 MSTORE PUSH1 0x24 PUSH1 0x0 REVERT JUMPDEST PUSH1 0x0 SWAP2 DUP3 MSTORE PUSH1 0x20 SWAP1 SWAP2 KECCAK256 ADD SLOAD PUSH1 0x8 DUP1 SLOAD PUSH1 0x1 PUSH1 0x1 PUSH1 0xA0 SHL SUB SWAP1 SWAP3 AND SWAP3 POP SWAP1 DUP5 SWAP1 DUP2 LT PUSH2 0x9DF JUMPI PUSH4 0x4E487B71 PUSH1 0xE0 SHL PUSH1 0x0 MSTORE PUSH1 0x32 PUSH1 0x4 MSTORE PUSH1 0x24 PUSH1 0x0 REVERT JUMPDEST PUSH1 0x0 SWAP2 DUP3 MSTORE PUSH1 0x20 DUP3 KECCAK256 ADD SLOAD PUSH1 0x40 MLOAD SWAP1 SWAP4 POP PUSH1 0x1 PUSH1 0x1 PUSH1 0xA0 SHL SUB DUP4 AND SWAP2 DUP5 ISZERO PUSH2 0x8FC MUL SWAP2 DUP6 SWAP2 DUP2 DUP2 DUP2 DUP6 DUP9 DUP9 CALL SWAP4 POP POP POP POP ISZERO DUP1 ISZERO PUSH2 0xA21 JUMPI RETURNDATASIZE PUSH1 0x0 DUP1 RETURNDATACOPY RETURNDATASIZE PUSH1 0x0 REVERT JUMPDEST POP DUP3 PUSH2 0xA2C DUP2 PUSH2 0xC7B JUMP JUMPDEST SWAP4 POP POP PUSH2 0x978 JUMP JUMPDEST PUSH1 0x2 SLOAD PUSH3 0x10000 SWAP1 DIV PUSH1 0x1 PUSH1 0x1 PUSH1 0xA0 SHL SUB AND CALLER EQ PUSH2 0xA64 JUMPI PUSH1 0x40 MLOAD PUSH3 0x461BCD PUSH1 0xE5 SHL DUP2 MSTORE PUSH1 0x4 ADD PUSH2 0x2AD SWAP1 PUSH2 0xBED JUMP JUMPDEST PUSH1 0x40 DUP1 MLOAD PUSH1 0x0 DUP2 MSTORE PUSH1 0x20 DUP2 ADD SWAP2 DUP3 SWAP1 MSTORE MLOAD PUSH2 0xA81 SWAP2 PUSH1 0x4 SWAP2 PUSH2 0xAF8 JUMP JUMPDEST POP PUSH1 0x40 DUP1 MLOAD PUSH1 0x0 DUP2 MSTORE PUSH1 0x20 DUP2 ADD SWAP2 DUP3 SWAP1 MSTORE MLOAD PUSH2 0xA9F SWAP2 PUSH1 0x5 SWAP2 PUSH2 0xB5D JUMP JUMPDEST POP PUSH1 0x0 PUSH1 0x6 DUP2 SWAP1 SSTORE PUSH1 0x40 DUP1 MLOAD SWAP2 DUP3 MSTORE PUSH1 0x20 DUP3 ADD SWAP1 DUP2 SWAP1 MSTORE SWAP1 MLOAD PUSH2 0xAC4 SWAP2 PUSH1 0x7 SWAP2 PUSH2 0xAF8 JUMP JUMPDEST POP PUSH1 0x40 DUP1 MLOAD PUSH1 0x0 DUP2 MSTORE PUSH1 0x20 DUP2 ADD SWAP2 DUP3 SWAP1 MSTORE MLOAD PUSH2 0xAE2 SWAP2 PUSH1 0x8 SWAP2 PUSH2 0xB5D JUMP JUMPDEST POP PUSH1 0x0 PUSH1 0x9 SSTORE PUSH1 0xA DUP1 SLOAD PUSH1 0xFF NOT AND SWAP1 SSTORE TIMESTAMP PUSH1 0x3 SSTORE JUMP JUMPDEST DUP3 DUP1 SLOAD DUP3 DUP3 SSTORE SWAP1 PUSH1 0x0 MSTORE PUSH1 0x20 PUSH1 0x0 KECCAK256 SWAP1 DUP2 ADD SWAP3 DUP3 ISZERO PUSH2 0xB4D JUMPI SWAP2 PUSH1 0x20 MUL DUP3 ADD JUMPDEST DUP3 DUP2 GT ISZERO PUSH2 0xB4D JUMPI DUP3 MLOAD DUP3 SLOAD PUSH1 0x1 PUSH1 0x1 PUSH1 0xA0 SHL SUB NOT AND PUSH1 0x1 PUSH1 0x1 PUSH1 0xA0 SHL SUB SWAP1 SWAP2 AND OR DUP3 SSTORE PUSH1 0x20 SWAP1 SWAP3 ADD SWAP2 PUSH1 0x1 SWAP1 SWAP2 ADD SWAP1 PUSH2 0xB18 JUMP JUMPDEST POP PUSH2 0xB59 SWAP3 SWAP2 POP PUSH2 0xB98 JUMP JUMPDEST POP SWAP1 JUMP JUMPDEST DUP3 DUP1 SLOAD DUP3 DUP3 SSTORE SWAP1 PUSH1 0x0 MSTORE PUSH1 0x20 PUSH1 0x0 KECCAK256 SWAP1 DUP2 ADD SWAP3 DUP3 ISZERO PUSH2 0xB4D JUMPI SWAP2 PUSH1 0x20 MUL DUP3 ADD JUMPDEST DUP3 DUP2 GT ISZERO PUSH2 0xB4D JUMPI DUP3 MLOAD DUP3 SSTORE SWAP2 PUSH1 0x20 ADD SWAP2 SWAP1 PUSH1 0x1 ADD SWAP1 PUSH2 0xB7D JUMP JUMPDEST JUMPDEST DUP1 DUP3 GT ISZERO PUSH2 0xB59 JUMPI PUSH1 0x0 DUP2 SSTORE PUSH1 0x1 ADD PUSH2 0xB99 JUMP JUMPDEST PUSH1 0x0 PUSH1 0x20 DUP3 DUP5 SUB SLT ISZERO PUSH2 0xBBE JUMPI DUP1 DUP2 REVERT JUMPDEST POP CALLDATALOAD SWAP2 SWAP1 POP JUMP JUMPDEST PUSH1 0x0 PUSH1 0x20 DUP3 DUP5 SUB SLT ISZERO PUSH2 0xBD6 JUMPI DUP1 DUP2 REVERT JUMPDEST DUP2 CALLDATALOAD PUSH1 0xFF DUP2 AND DUP2 EQ PUSH2 0xBE6 JUMPI DUP2 DUP3 REVERT JUMPDEST SWAP4 SWAP3 POP POP POP JUMP JUMPDEST PUSH1 0x20 DUP1 DUP3 MSTORE PUSH1 0x18 SWAP1 DUP3 ADD MSTORE PUSH32 0x596F7520617265206E6F7420746865206D616E616765722E0000000000000000 PUSH1 0x40 DUP3 ADD MSTORE PUSH1 0x60 ADD SWAP1 JUMP JUMPDEST PUSH1 0x0 DUP3 NOT DUP3 GT ISZERO PUSH2 0xC37 JUMPI PUSH2 0xC37 PUSH2 0xC96 JUMP JUMPDEST POP ADD SWAP1 JUMP JUMPDEST PUSH1 0x0 DUP3 PUSH2 0xC57 JUMPI PUSH4 0x4E487B71 PUSH1 0xE0 SHL DUP2 MSTORE PUSH1 0x12 PUSH1 0x4 MSTORE PUSH1 0x24 DUP2 REVERT JUMPDEST POP DIV SWAP1 JUMP JUMPDEST PUSH1 0x0 DUP2 PUSH1 0x0 NOT DIV DUP4 GT DUP3 ISZERO ISZERO AND ISZERO PUSH2 0xC76 JUMPI PUSH2 0xC76 PUSH2 0xC96 JUMP JUMPDEST POP MUL SWAP1 JUMP JUMPDEST PUSH1 0x0 PUSH1 0x0 NOT DUP3 EQ ISZERO PUSH2 0xC8F JUMPI PUSH2 0xC8F PUSH2 0xC96 JUMP JUMPDEST POP PUSH1 0x1 ADD SWAP1 JUMP JUMPDEST PUSH4 0x4E487B71 PUSH1 0xE0 SHL PUSH1 0x0 MSTORE PUSH1 0x11 PUSH1 0x4 MSTORE PUSH1 0x24 PUSH1 0x0 REVERT INVALID LOG2 PUSH5 0x6970667358 0x22 SLT KECCAK256 DUP7 0xB8 0xD1 MSIZE 0xBD 0xA6 PUSH4 0xBA5CA73A LT SWAP14 PUSH11 0xBB910964A666C5391A1D30 0x23 0x5E 0x26 0x27 0xD4 CODESIZE 0xAA PUSH5 0x736F6C6343 STOP ADDMOD DIV STOP CALLER "
        },
        "methodIdentifiers": {
          "cancelBet()": "7b6d79f1",
          "createdTime()": "b2f4bdb0",
          "destroy()": "83197ef0",
          "enterWithNoRain()": "c5fd09e1",
          "enterWithRain()": "376f86b0",
          "finalWeather()": "8c507255",
          "manager()": "481c6a75",
          "noRainBetsAmount(uint256)": "bc0bdba3",
          "noRainBetsPlayers(uint256)": "376802d6",
          "payout(uint8)": "153f2b4b",
          "rainBetsAmount(uint256)": "828c3fdc",
          "rainBetsPlayers(uint256)": "d1f19d0a",
          "totalBetsonNoRain()": "c3ad9707",
          "totalBetsonRain()": "b5ec3649"
        }
      }
    }
  }
}