{
  "contracts/WeatherBet.sol": {
    "WeatherBet": {
      "abi": [
        {
          "inputs": [],
          "stateMutability": "nonpayable",
          "type": "constructor"
        },
        {
          "inputs": [],
          "name": "cancelBet",
          "outputs": [],
          "stateMutability": "nonpayable",
          "type": "function"
        },
        {
          "inputs": [],
          "name": "createdTime",
          "outputs": [
            {
              "internalType": "uint256",
              "name": "",
              "type": "uint256"
            }
          ],
          "stateMutability": "view",
          "type": "function"
        },
        {
          "inputs": [],
          "name": "destroy",
          "outputs": [],
          "stateMutability": "nonpayable",
          "type": "function"
        },
        {
          "inputs": [],
          "name": "enterWithNoRain",
          "outputs": [],
          "stateMutability": "payable",
          "type": "function"
        },
        {
          "inputs": [],
          "name": "enterWithRain",
          "outputs": [],
          "stateMutability": "payable",
          "type": "function"
        },
        {
          "inputs": [],
          "name": "finalWeather",
          "outputs": [
            {
              "internalType": "uint8",
              "name": "",
              "type": "uint8"
            }
          ],
          "stateMutability": "view",
          "type": "function"
        },
        {
          "inputs": [],
          "name": "manager",
          "outputs": [
            {
              "internalType": "address",
              "name": "",
              "type": "address"
            }
          ],
          "stateMutability": "view",
          "type": "function"
        },
        {
          "inputs": [
            {
              "internalType": "uint256",
              "name": "",
              "type": "uint256"
            }
          ],
          "name": "noRainBetsAmount",
          "outputs": [
            {
              "internalType": "uint256",
              "name": "",
              "type": "uint256"
            }
          ],
          "stateMutability": "view",
          "type": "function"
        },
        {
          "inputs": [
            {
              "internalType": "uint256",
              "name": "",
              "type": "uint256"
            }
          ],
          "name": "noRainBetsPlayers",
          "outputs": [
            {
              "internalType": "address payable",
              "name": "",
              "type": "address"
            }
          ],
          "stateMutability": "view",
          "type": "function"
        },
        {
          "inputs": [
            {
              "internalType": "uint8",
              "name": "_finalWeather",
              "type": "uint8"
            }
          ],
          "name": "payout",
          "outputs": [],
          "stateMutability": "nonpayable",
          "type": "function"
        },
        {
          "inputs": [
            {
              "internalType": "uint256",
              "name": "",
              "type": "uint256"
            }
          ],
          "name": "rainBetsAmount",
          "outputs": [
            {
              "internalType": "uint256",
              "name": "",
              "type": "uint256"
            }
          ],
          "stateMutability": "view",
          "type": "function"
        },
        {
          "inputs": [
            {
              "internalType": "uint256",
              "name": "",
              "type": "uint256"
            }
          ],
          "name": "rainBetsPlayers",
          "outputs": [
            {
              "internalType": "address payable",
              "name": "",
              "type": "address"
            }
          ],
          "stateMutability": "view",
          "type": "function"
        },
        {
          "inputs": [],
          "name": "resetBet",
          "outputs": [],
          "stateMutability": "nonpayable",
          "type": "function"
        },
        {
          "inputs": [],
          "name": "setExpired",
          "outputs": [],
          "stateMutability": "nonpayable",
          "type": "function"
        },
        {
          "inputs": [],
          "name": "totalBetsonNoRain",
          "outputs": [
            {
              "internalType": "uint256",
              "name": "",
              "type": "uint256"
            }
          ],
          "stateMutability": "view",
          "type": "function"
        },
        {
          "inputs": [],
          "name": "totalBetsonRain",
          "outputs": [
            {
              "internalType": "uint256",
              "name": "",
              "type": "uint256"
            }
          ],
          "stateMutability": "view",
          "type": "function"
        }
      ],
      "evm": {
        "bytecode": {
          "linkReferences": {},
          "object": "608060405262015180600055662386f26fc100006001556002805461ffff191661020117905534801561003157600080fd5b506002805462010000600160b01b03191633620100000217905542600355610d558061005e6000396000f3fe6080604052600436106100f35760003560e01c80638c5072551161008a578063bc0bdba311610059578063bc0bdba31461025f578063c3ad97071461027f578063c5fd09e114610295578063d1f19d0a1461029d57600080fd5b80638c507255146101f2578063a56fa76c1461021e578063b2f4bdb014610233578063b5ec36491461024957600080fd5b8063481c6a75116100c6578063481c6a75146101745780637b6d79f11461019a578063828c3fdc146101af57806383197ef0146101dd57600080fd5b8063153f2b4b146100f8578063376802d61461011a578063376f86b01461015757806343146f361461015f575b600080fd5b34801561010457600080fd5b50610118610113366004610c38565b6102bd565b005b34801561012657600080fd5b5061013a610135366004610c20565b61048c565b6040516001600160a01b0390911681526020015b60405180910390f35b6101186104b6565b34801561016b57600080fd5b506101186105e8565b34801561018057600080fd5b5060025461013a906201000090046001600160a01b031681565b3480156101a657600080fd5b506101186106b8565b3480156101bb57600080fd5b506101cf6101ca366004610c20565b610702565b60405190815260200161014e565b3480156101e957600080fd5b50610118610723565b3480156101fe57600080fd5b50600b5461020c9060ff1681565b60405160ff909116815260200161014e565b34801561022a57600080fd5b50610118610777565b34801561023f57600080fd5b506101cf60035481565b34801561025557600080fd5b506101cf60075481565b34801561026b57600080fd5b506101cf61027a366004610c20565b6107b6565b34801561028b57600080fd5b506101cf600a5481565b6101186107c6565b3480156102a957600080fd5b5061013a6102b8366004610c20565b6108f1565b6002546201000090046001600160a01b031633146102f65760405162461bcd60e51b81526004016102ed90610c60565b60405180910390fd5b600b805460ff191660ff831617905561030d610901565b6103655760405162461bcd60e51b815260206004820152602360248201527f5765617468657220686173206e6f74206265656e20616e6e6f756e636564207960448201526232ba1760e91b60648201526084016102ed565b6000610376600b5460ff1660011490565b610381576008610384565b60055b90506000610397600b5460ff1660011490565b6103a25760096103a5565b60065b905060005b82548110156104865760008382815481106103d557634e487b7160e01b600052603260045260246000fd5b600091825260208220015484546001600160a01b03909116925084908490811061040f57634e487b7160e01b600052603260045260246000fd5b90600052602060002001549050600061043682610431600b5460ff1660011490565b610931565b6040519091506001600160a01b0384169082156108fc029083906000818181858888f1935050505015801561046f573d6000803e3d6000fd5b50505050808061047e90610cee565b9150506103aa565b50505050565b6008818154811061049c57600080fd5b6000918252602090912001546001600160a01b0316905081565b6001543410156105085760405162461bcd60e51b815260206004820152601a60248201527f4d696e696d756d2062657420697320302e30312065746865722e00000000000060448201526064016102ed565b60045460ff161561055b5760405162461bcd60e51b815260206004820152601e60248201527f54696d6520657870697265642e20416374696f6e2072656a65637465642e000060448201526064016102ed565b6005805460018181019092557f036b6384b5eca791c62761152d0c79bb0604c104a5fb6f4eb0703f3154bb3db00180546001600160a01b031916331790556006805491820181556000908152347ff652222313e28459528d920b65115c16c04f3efc82aaedc97be59f3f377c0d3f909201829055600780549091906105e1908490610c97565b9091555050565b6002546201000090046001600160a01b031633146106185760405162461bcd60e51b81526004016102ed90610c60565b604080516000815260208101918290525161063591600591610b6b565b50604080516000815260208101918290525161065391600691610bd0565b5060006007819055604080519182526020820190819052905161067891600891610b6b565b50604080516000815260208101918290525161069691600991610bd0565b506000600a55600b805460ff1990811690915542600355600480549091169055565b6002546201000090046001600160a01b031633146106e85760405162461bcd60e51b81526004016102ed90610c60565b6106f0610984565b6106f8610a7a565b6107006105e8565b565b6006818154811061071257600080fd5b600091825260209091200154905081565b6002546201000090046001600160a01b031633146107535760405162461bcd60e51b81526004016102ed90610c60565b61075b610984565b610763610a7a565b6002546201000090046001600160a01b0316ff5b6002546201000090046001600160a01b031633146107a75760405162461bcd60e51b81526004016102ed90610c60565b6004805460ff19166001179055565b6009818154811061071257600080fd5b6001543410156108185760405162461bcd60e51b815260206004820152601a60248201527f4d696e696d756d2062657420697320302e30312065746865722e00000000000060448201526064016102ed565b60045460ff161561086b5760405162461bcd60e51b815260206004820152601e60248201527f54696d6520657870697265642e20416374696f6e2072656a65637465642e000060448201526064016102ed565b6008805460018181019092557ff3f7a9fe364faab93b216da50a3214154f22a0a2b415b23a84c8169e8b636ee30180546001600160a01b031916331790556009805491820181556000908152347f6e1540171b6c0c960b71a7020d9f60077f6af931a8bbf590da0223dacf75c7af909201829055600a80549091906105e1908490610c97565b6005818154811061049c57600080fd5b600254600b5460009160ff9182169116148061092c5750600254600b5460ff90811661010090920416145b905090565b6000808261094157600754610945565b600a545b905060008361095657600a5461095a565b6007545b9050806109678684610ccf565b6109719190610caf565b61097b9086610c97565b95945050505050565b6002546201000090046001600160a01b031633146109b45760405162461bcd60e51b81526004016102ed90610c60565b600080805b600554831015610a7557600583815481106109e457634e487b7160e01b600052603260045260246000fd5b600091825260209091200154600680546001600160a01b0390921692509084908110610a2057634e487b7160e01b600052603260045260246000fd5b60009182526020822001546040519093506001600160a01b0383169184156108fc02918591818181858888f19350505050158015610a62573d6000803e3d6000fd5b5082610a6d81610cee565b9350506109b9565b505050565b6002546201000090046001600160a01b03163314610aaa5760405162461bcd60e51b81526004016102ed90610c60565b600080805b600854831015610a755760088381548110610ada57634e487b7160e01b600052603260045260246000fd5b600091825260209091200154600980546001600160a01b0390921692509084908110610b1657634e487b7160e01b600052603260045260246000fd5b60009182526020822001546040519093506001600160a01b0383169184156108fc02918591818181858888f19350505050158015610b58573d6000803e3d6000fd5b5082610b6381610cee565b935050610aaf565b828054828255906000526020600020908101928215610bc0579160200282015b82811115610bc057825182546001600160a01b0319166001600160a01b03909116178255602090920191600190910190610b8b565b50610bcc929150610c0b565b5090565b828054828255906000526020600020908101928215610bc0579160200282015b82811115610bc0578251825591602001919060010190610bf0565b5b80821115610bcc5760008155600101610c0c565b600060208284031215610c31578081fd5b5035919050565b600060208284031215610c49578081fd5b813560ff81168114610c59578182fd5b9392505050565b60208082526018908201527f596f7520617265206e6f7420746865206d616e616765722e0000000000000000604082015260600190565b60008219821115610caa57610caa610d09565b500190565b600082610cca57634e487b7160e01b81526012600452602481fd5b500490565b6000816000190483118215151615610ce957610ce9610d09565b500290565b6000600019821415610d0257610d02610d09565b5060010190565b634e487b7160e01b600052601160045260246000fdfea2646970667358221220ccf70ed8703bb42ed5be41c240d37bbeb0e52e6d3ffbe188735a8689a8db638264736f6c63430008040033",
          "opcodes": "PUSH1 0x80 PUSH1 0x40 MSTORE PUSH3 0x15180 PUSH1 0x0 SSTORE PUSH7 0x2386F26FC10000 PUSH1 0x1 SSTORE PUSH1 0x2 DUP1 SLOAD PUSH2 0xFFFF NOT AND PUSH2 0x201 OR SWAP1 SSTORE CALLVALUE DUP1 ISZERO PUSH2 0x31 JUMPI PUSH1 0x0 DUP1 REVERT JUMPDEST POP PUSH1 0x2 DUP1 SLOAD PUSH3 0x10000 PUSH1 0x1 PUSH1 0xB0 SHL SUB NOT AND CALLER PUSH3 0x10000 MUL OR SWAP1 SSTORE TIMESTAMP PUSH1 0x3 SSTORE PUSH2 0xD55 DUP1 PUSH2 0x5E PUSH1 0x0 CODECOPY PUSH1 0x0 RETURN INVALID PUSH1 0x80 PUSH1 0x40 MSTORE PUSH1 0x4 CALLDATASIZE LT PUSH2 0xF3 JUMPI PUSH1 0x0 CALLDATALOAD PUSH1 0xE0 SHR DUP1 PUSH4 0x8C507255 GT PUSH2 0x8A JUMPI DUP1 PUSH4 0xBC0BDBA3 GT PUSH2 0x59 JUMPI DUP1 PUSH4 0xBC0BDBA3 EQ PUSH2 0x25F JUMPI DUP1 PUSH4 0xC3AD9707 EQ PUSH2 0x27F JUMPI DUP1 PUSH4 0xC5FD09E1 EQ PUSH2 0x295 JUMPI DUP1 PUSH4 0xD1F19D0A EQ PUSH2 0x29D JUMPI PUSH1 0x0 DUP1 REVERT JUMPDEST DUP1 PUSH4 0x8C507255 EQ PUSH2 0x1F2 JUMPI DUP1 PUSH4 0xA56FA76C EQ PUSH2 0x21E JUMPI DUP1 PUSH4 0xB2F4BDB0 EQ PUSH2 0x233 JUMPI DUP1 PUSH4 0xB5EC3649 EQ PUSH2 0x249 JUMPI PUSH1 0x0 DUP1 REVERT JUMPDEST DUP1 PUSH4 0x481C6A75 GT PUSH2 0xC6 JUMPI DUP1 PUSH4 0x481C6A75 EQ PUSH2 0x174 JUMPI DUP1 PUSH4 0x7B6D79F1 EQ PUSH2 0x19A JUMPI DUP1 PUSH4 0x828C3FDC EQ PUSH2 0x1AF JUMPI DUP1 PUSH4 0x83197EF0 EQ PUSH2 0x1DD JUMPI PUSH1 0x0 DUP1 REVERT JUMPDEST DUP1 PUSH4 0x153F2B4B EQ PUSH2 0xF8 JUMPI DUP1 PUSH4 0x376802D6 EQ PUSH2 0x11A JUMPI DUP1 PUSH4 0x376F86B0 EQ PUSH2 0x157 JUMPI DUP1 PUSH4 0x43146F36 EQ PUSH2 0x15F JUMPI JUMPDEST PUSH1 0x0 DUP1 REVERT JUMPDEST CALLVALUE DUP1 ISZERO PUSH2 0x104 JUMPI PUSH1 0x0 DUP1 REVERT JUMPDEST POP PUSH2 0x118 PUSH2 0x113 CALLDATASIZE PUSH1 0x4 PUSH2 0xC38 JUMP JUMPDEST PUSH2 0x2BD JUMP JUMPDEST STOP JUMPDEST CALLVALUE DUP1 ISZERO PUSH2 0x126 JUMPI PUSH1 0x0 DUP1 REVERT JUMPDEST POP PUSH2 0x13A PUSH2 0x135 CALLDATASIZE PUSH1 0x4 PUSH2 0xC20 JUMP JUMPDEST PUSH2 0x48C JUMP JUMPDEST PUSH1 0x40 MLOAD PUSH1 0x1 PUSH1 0x1 PUSH1 0xA0 SHL SUB SWAP1 SWAP2 AND DUP2 MSTORE PUSH1 0x20 ADD JUMPDEST PUSH1 0x40 MLOAD DUP1 SWAP2 SUB SWAP1 RETURN JUMPDEST PUSH2 0x118 PUSH2 0x4B6 JUMP JUMPDEST CALLVALUE DUP1 ISZERO PUSH2 0x16B JUMPI PUSH1 0x0 DUP1 REVERT JUMPDEST POP PUSH2 0x118 PUSH2 0x5E8 JUMP JUMPDEST CALLVALUE DUP1 ISZERO PUSH2 0x180 JUMPI PUSH1 0x0 DUP1 REVERT JUMPDEST POP PUSH1 0x2 SLOAD PUSH2 0x13A SWAP1 PUSH3 0x10000 SWAP1 DIV PUSH1 0x1 PUSH1 0x1 PUSH1 0xA0 SHL SUB AND DUP2 JUMP JUMPDEST CALLVALUE DUP1 ISZERO PUSH2 0x1A6 JUMPI PUSH1 0x0 DUP1 REVERT JUMPDEST POP PUSH2 0x118 PUSH2 0x6B8 JUMP JUMPDEST CALLVALUE DUP1 ISZERO PUSH2 0x1BB JUMPI PUSH1 0x0 DUP1 REVERT JUMPDEST POP PUSH2 0x1CF PUSH2 0x1CA CALLDATASIZE PUSH1 0x4 PUSH2 0xC20 JUMP JUMPDEST PUSH2 0x702 JUMP JUMPDEST PUSH1 0x40 MLOAD SWAP1 DUP2 MSTORE PUSH1 0x20 ADD PUSH2 0x14E JUMP JUMPDEST CALLVALUE DUP1 ISZERO PUSH2 0x1E9 JUMPI PUSH1 0x0 DUP1 REVERT JUMPDEST POP PUSH2 0x118 PUSH2 0x723 JUMP JUMPDEST CALLVALUE DUP1 ISZERO PUSH2 0x1FE JUMPI PUSH1 0x0 DUP1 REVERT JUMPDEST POP PUSH1 0xB SLOAD PUSH2 0x20C SWAP1 PUSH1 0xFF AND DUP2 JUMP JUMPDEST PUSH1 0x40 MLOAD PUSH1 0xFF SWAP1 SWAP2 AND DUP2 MSTORE PUSH1 0x20 ADD PUSH2 0x14E JUMP JUMPDEST CALLVALUE DUP1 ISZERO PUSH2 0x22A JUMPI PUSH1 0x0 DUP1 REVERT JUMPDEST POP PUSH2 0x118 PUSH2 0x777 JUMP JUMPDEST CALLVALUE DUP1 ISZERO PUSH2 0x23F JUMPI PUSH1 0x0 DUP1 REVERT JUMPDEST POP PUSH2 0x1CF PUSH1 0x3 SLOAD DUP2 JUMP JUMPDEST CALLVALUE DUP1 ISZERO PUSH2 0x255 JUMPI PUSH1 0x0 DUP1 REVERT JUMPDEST POP PUSH2 0x1CF PUSH1 0x7 SLOAD DUP2 JUMP JUMPDEST CALLVALUE DUP1 ISZERO PUSH2 0x26B JUMPI PUSH1 0x0 DUP1 REVERT JUMPDEST POP PUSH2 0x1CF PUSH2 0x27A CALLDATASIZE PUSH1 0x4 PUSH2 0xC20 JUMP JUMPDEST PUSH2 0x7B6 JUMP JUMPDEST CALLVALUE DUP1 ISZERO PUSH2 0x28B JUMPI PUSH1 0x0 DUP1 REVERT JUMPDEST POP PUSH2 0x1CF PUSH1 0xA SLOAD DUP2 JUMP JUMPDEST PUSH2 0x118 PUSH2 0x7C6 JUMP JUMPDEST CALLVALUE DUP1 ISZERO PUSH2 0x2A9 JUMPI PUSH1 0x0 DUP1 REVERT JUMPDEST POP PUSH2 0x13A PUSH2 0x2B8 CALLDATASIZE PUSH1 0x4 PUSH2 0xC20 JUMP JUMPDEST PUSH2 0x8F1 JUMP JUMPDEST PUSH1 0x2 SLOAD PUSH3 0x10000 SWAP1 DIV PUSH1 0x1 PUSH1 0x1 PUSH1 0xA0 SHL SUB AND CALLER EQ PUSH2 0x2F6 JUMPI PUSH1 0x40 MLOAD PUSH3 0x461BCD PUSH1 0xE5 SHL DUP2 MSTORE PUSH1 0x4 ADD PUSH2 0x2ED SWAP1 PUSH2 0xC60 JUMP JUMPDEST PUSH1 0x40 MLOAD DUP1 SWAP2 SUB SWAP1 REVERT JUMPDEST PUSH1 0xB DUP1 SLOAD PUSH1 0xFF NOT AND PUSH1 0xFF DUP4 AND OR SWAP1 SSTORE PUSH2 0x30D PUSH2 0x901 JUMP JUMPDEST PUSH2 0x365 JUMPI PUSH1 0x40 MLOAD PUSH3 0x461BCD PUSH1 0xE5 SHL DUP2 MSTORE PUSH1 0x20 PUSH1 0x4 DUP3 ADD MSTORE PUSH1 0x23 PUSH1 0x24 DUP3 ADD MSTORE PUSH32 0x5765617468657220686173206E6F74206265656E20616E6E6F756E6365642079 PUSH1 0x44 DUP3 ADD MSTORE PUSH3 0x32BA17 PUSH1 0xE9 SHL PUSH1 0x64 DUP3 ADD MSTORE PUSH1 0x84 ADD PUSH2 0x2ED JUMP JUMPDEST PUSH1 0x0 PUSH2 0x376 PUSH1 0xB SLOAD PUSH1 0xFF AND PUSH1 0x1 EQ SWAP1 JUMP JUMPDEST PUSH2 0x381 JUMPI PUSH1 0x8 PUSH2 0x384 JUMP JUMPDEST PUSH1 0x5 JUMPDEST SWAP1 POP PUSH1 0x0 PUSH2 0x397 PUSH1 0xB SLOAD PUSH1 0xFF AND PUSH1 0x1 EQ SWAP1 JUMP JUMPDEST PUSH2 0x3A2 JUMPI PUSH1 0x9 PUSH2 0x3A5 JUMP JUMPDEST PUSH1 0x6 JUMPDEST SWAP1 POP PUSH1 0x0 JUMPDEST DUP3 SLOAD DUP2 LT ISZERO PUSH2 0x486 JUMPI PUSH1 0x0 DUP4 DUP3 DUP2 SLOAD DUP2 LT PUSH2 0x3D5 JUMPI PUSH4 0x4E487B71 PUSH1 0xE0 SHL PUSH1 0x0 MSTORE PUSH1 0x32 PUSH1 0x4 MSTORE PUSH1 0x24 PUSH1 0x0 REVERT JUMPDEST PUSH1 0x0 SWAP2 DUP3 MSTORE PUSH1 0x20 DUP3 KECCAK256 ADD SLOAD DUP5 SLOAD PUSH1 0x1 PUSH1 0x1 PUSH1 0xA0 SHL SUB SWAP1 SWAP2 AND SWAP3 POP DUP5 SWAP1 DUP5 SWAP1 DUP2 LT PUSH2 0x40F JUMPI PUSH4 0x4E487B71 PUSH1 0xE0 SHL PUSH1 0x0 MSTORE PUSH1 0x32 PUSH1 0x4 MSTORE PUSH1 0x24 PUSH1 0x0 REVERT JUMPDEST SWAP1 PUSH1 0x0 MSTORE PUSH1 0x20 PUSH1 0x0 KECCAK256 ADD SLOAD SWAP1 POP PUSH1 0x0 PUSH2 0x436 DUP3 PUSH2 0x431 PUSH1 0xB SLOAD PUSH1 0xFF AND PUSH1 0x1 EQ SWAP1 JUMP JUMPDEST PUSH2 0x931 JUMP JUMPDEST PUSH1 0x40 MLOAD SWAP1 SWAP2 POP PUSH1 0x1 PUSH1 0x1 PUSH1 0xA0 SHL SUB DUP5 AND SWAP1 DUP3 ISZERO PUSH2 0x8FC MUL SWAP1 DUP4 SWAP1 PUSH1 0x0 DUP2 DUP2 DUP2 DUP6 DUP9 DUP9 CALL SWAP4 POP POP POP POP ISZERO DUP1 ISZERO PUSH2 0x46F JUMPI RETURNDATASIZE PUSH1 0x0 DUP1 RETURNDATACOPY RETURNDATASIZE PUSH1 0x0 REVERT JUMPDEST POP POP POP POP DUP1 DUP1 PUSH2 0x47E SWAP1 PUSH2 0xCEE JUMP JUMPDEST SWAP2 POP POP PUSH2 0x3AA JUMP JUMPDEST POP POP POP POP JUMP JUMPDEST PUSH1 0x8 DUP2 DUP2 SLOAD DUP2 LT PUSH2 0x49C JUMPI PUSH1 0x0 DUP1 REVERT JUMPDEST PUSH1 0x0 SWAP2 DUP3 MSTORE PUSH1 0x20 SWAP1 SWAP2 KECCAK256 ADD SLOAD PUSH1 0x1 PUSH1 0x1 PUSH1 0xA0 SHL SUB AND SWAP1 POP DUP2 JUMP JUMPDEST PUSH1 0x1 SLOAD CALLVALUE LT ISZERO PUSH2 0x508 JUMPI PUSH1 0x40 MLOAD PUSH3 0x461BCD PUSH1 0xE5 SHL DUP2 MSTORE PUSH1 0x20 PUSH1 0x4 DUP3 ADD MSTORE PUSH1 0x1A PUSH1 0x24 DUP3 ADD MSTORE PUSH32 0x4D696E696D756D2062657420697320302E30312065746865722E000000000000 PUSH1 0x44 DUP3 ADD MSTORE PUSH1 0x64 ADD PUSH2 0x2ED JUMP JUMPDEST PUSH1 0x4 SLOAD PUSH1 0xFF AND ISZERO PUSH2 0x55B JUMPI PUSH1 0x40 MLOAD PUSH3 0x461BCD PUSH1 0xE5 SHL DUP2 MSTORE PUSH1 0x20 PUSH1 0x4 DUP3 ADD MSTORE PUSH1 0x1E PUSH1 0x24 DUP3 ADD MSTORE PUSH32 0x54696D6520657870697265642E20416374696F6E2072656A65637465642E0000 PUSH1 0x44 DUP3 ADD MSTORE PUSH1 0x64 ADD PUSH2 0x2ED JUMP JUMPDEST PUSH1 0x5 DUP1 SLOAD PUSH1 0x1 DUP2 DUP2 ADD SWAP1 SWAP3 SSTORE PUSH32 0x36B6384B5ECA791C62761152D0C79BB0604C104A5FB6F4EB0703F3154BB3DB0 ADD DUP1 SLOAD PUSH1 0x1 PUSH1 0x1 PUSH1 0xA0 SHL SUB NOT AND CALLER OR SWAP1 SSTORE PUSH1 0x6 DUP1 SLOAD SWAP2 DUP3 ADD DUP2 SSTORE PUSH1 0x0 SWAP1 DUP2 MSTORE CALLVALUE PUSH32 0xF652222313E28459528D920B65115C16C04F3EFC82AAEDC97BE59F3F377C0D3F SWAP1 SWAP3 ADD DUP3 SWAP1 SSTORE PUSH1 0x7 DUP1 SLOAD SWAP1 SWAP2 SWAP1 PUSH2 0x5E1 SWAP1 DUP5 SWAP1 PUSH2 0xC97 JUMP JUMPDEST SWAP1 SWAP2 SSTORE POP POP JUMP JUMPDEST PUSH1 0x2 SLOAD PUSH3 0x10000 SWAP1 DIV PUSH1 0x1 PUSH1 0x1 PUSH1 0xA0 SHL SUB AND CALLER EQ PUSH2 0x618 JUMPI PUSH1 0x40 MLOAD PUSH3 0x461BCD PUSH1 0xE5 SHL DUP2 MSTORE PUSH1 0x4 ADD PUSH2 0x2ED SWAP1 PUSH2 0xC60 JUMP JUMPDEST PUSH1 0x40 DUP1 MLOAD PUSH1 0x0 DUP2 MSTORE PUSH1 0x20 DUP2 ADD SWAP2 DUP3 SWAP1 MSTORE MLOAD PUSH2 0x635 SWAP2 PUSH1 0x5 SWAP2 PUSH2 0xB6B JUMP JUMPDEST POP PUSH1 0x40 DUP1 MLOAD PUSH1 0x0 DUP2 MSTORE PUSH1 0x20 DUP2 ADD SWAP2 DUP3 SWAP1 MSTORE MLOAD PUSH2 0x653 SWAP2 PUSH1 0x6 SWAP2 PUSH2 0xBD0 JUMP JUMPDEST POP PUSH1 0x0 PUSH1 0x7 DUP2 SWAP1 SSTORE PUSH1 0x40 DUP1 MLOAD SWAP2 DUP3 MSTORE PUSH1 0x20 DUP3 ADD SWAP1 DUP2 SWAP1 MSTORE SWAP1 MLOAD PUSH2 0x678 SWAP2 PUSH1 0x8 SWAP2 PUSH2 0xB6B JUMP JUMPDEST POP PUSH1 0x40 DUP1 MLOAD PUSH1 0x0 DUP2 MSTORE PUSH1 0x20 DUP2 ADD SWAP2 DUP3 SWAP1 MSTORE MLOAD PUSH2 0x696 SWAP2 PUSH1 0x9 SWAP2 PUSH2 0xBD0 JUMP JUMPDEST POP PUSH1 0x0 PUSH1 0xA SSTORE PUSH1 0xB DUP1 SLOAD PUSH1 0xFF NOT SWAP1 DUP2 AND SWAP1 SWAP2 SSTORE TIMESTAMP PUSH1 0x3 SSTORE PUSH1 0x4 DUP1 SLOAD SWAP1 SWAP2 AND SWAP1 SSTORE JUMP JUMPDEST PUSH1 0x2 SLOAD PUSH3 0x10000 SWAP1 DIV PUSH1 0x1 PUSH1 0x1 PUSH1 0xA0 SHL SUB AND CALLER EQ PUSH2 0x6E8 JUMPI PUSH1 0x40 MLOAD PUSH3 0x461BCD PUSH1 0xE5 SHL DUP2 MSTORE PUSH1 0x4 ADD PUSH2 0x2ED SWAP1 PUSH2 0xC60 JUMP JUMPDEST PUSH2 0x6F0 PUSH2 0x984 JUMP JUMPDEST PUSH2 0x6F8 PUSH2 0xA7A JUMP JUMPDEST PUSH2 0x700 PUSH2 0x5E8 JUMP JUMPDEST JUMP JUMPDEST PUSH1 0x6 DUP2 DUP2 SLOAD DUP2 LT PUSH2 0x712 JUMPI PUSH1 0x0 DUP1 REVERT JUMPDEST PUSH1 0x0 SWAP2 DUP3 MSTORE PUSH1 0x20 SWAP1 SWAP2 KECCAK256 ADD SLOAD SWAP1 POP DUP2 JUMP JUMPDEST PUSH1 0x2 SLOAD PUSH3 0x10000 SWAP1 DIV PUSH1 0x1 PUSH1 0x1 PUSH1 0xA0 SHL SUB AND CALLER EQ PUSH2 0x753 JUMPI PUSH1 0x40 MLOAD PUSH3 0x461BCD PUSH1 0xE5 SHL DUP2 MSTORE PUSH1 0x4 ADD PUSH2 0x2ED SWAP1 PUSH2 0xC60 JUMP JUMPDEST PUSH2 0x75B PUSH2 0x984 JUMP JUMPDEST PUSH2 0x763 PUSH2 0xA7A JUMP JUMPDEST PUSH1 0x2 SLOAD PUSH3 0x10000 SWAP1 DIV PUSH1 0x1 PUSH1 0x1 PUSH1 0xA0 SHL SUB AND SELFDESTRUCT JUMPDEST PUSH1 0x2 SLOAD PUSH3 0x10000 SWAP1 DIV PUSH1 0x1 PUSH1 0x1 PUSH1 0xA0 SHL SUB AND CALLER EQ PUSH2 0x7A7 JUMPI PUSH1 0x40 MLOAD PUSH3 0x461BCD PUSH1 0xE5 SHL DUP2 MSTORE PUSH1 0x4 ADD PUSH2 0x2ED SWAP1 PUSH2 0xC60 JUMP JUMPDEST PUSH1 0x4 DUP1 SLOAD PUSH1 0xFF NOT AND PUSH1 0x1 OR SWAP1 SSTORE JUMP JUMPDEST PUSH1 0x9 DUP2 DUP2 SLOAD DUP2 LT PUSH2 0x712 JUMPI PUSH1 0x0 DUP1 REVERT JUMPDEST PUSH1 0x1 SLOAD CALLVALUE LT ISZERO PUSH2 0x818 JUMPI PUSH1 0x40 MLOAD PUSH3 0x461BCD PUSH1 0xE5 SHL DUP2 MSTORE PUSH1 0x20 PUSH1 0x4 DUP3 ADD MSTORE PUSH1 0x1A PUSH1 0x24 DUP3 ADD MSTORE PUSH32 0x4D696E696D756D2062657420697320302E30312065746865722E000000000000 PUSH1 0x44 DUP3 ADD MSTORE PUSH1 0x64 ADD PUSH2 0x2ED JUMP JUMPDEST PUSH1 0x4 SLOAD PUSH1 0xFF AND ISZERO PUSH2 0x86B JUMPI PUSH1 0x40 MLOAD PUSH3 0x461BCD PUSH1 0xE5 SHL DUP2 MSTORE PUSH1 0x20 PUSH1 0x4 DUP3 ADD MSTORE PUSH1 0x1E PUSH1 0x24 DUP3 ADD MSTORE PUSH32 0x54696D6520657870697265642E20416374696F6E2072656A65637465642E0000 PUSH1 0x44 DUP3 ADD MSTORE PUSH1 0x64 ADD PUSH2 0x2ED JUMP JUMPDEST PUSH1 0x8 DUP1 SLOAD PUSH1 0x1 DUP2 DUP2 ADD SWAP1 SWAP3 SSTORE PUSH32 0xF3F7A9FE364FAAB93B216DA50A3214154F22A0A2B415B23A84C8169E8B636EE3 ADD DUP1 SLOAD PUSH1 0x1 PUSH1 0x1 PUSH1 0xA0 SHL SUB NOT AND CALLER OR SWAP1 SSTORE PUSH1 0x9 DUP1 SLOAD SWAP2 DUP3 ADD DUP2 SSTORE PUSH1 0x0 SWAP1 DUP2 MSTORE CALLVALUE PUSH32 0x6E1540171B6C0C960B71A7020D9F60077F6AF931A8BBF590DA0223DACF75C7AF SWAP1 SWAP3 ADD DUP3 SWAP1 SSTORE PUSH1 0xA DUP1 SLOAD SWAP1 SWAP2 SWAP1 PUSH2 0x5E1 SWAP1 DUP5 SWAP1 PUSH2 0xC97 JUMP JUMPDEST PUSH1 0x5 DUP2 DUP2 SLOAD DUP2 LT PUSH2 0x49C JUMPI PUSH1 0x0 DUP1 REVERT JUMPDEST PUSH1 0x2 SLOAD PUSH1 0xB SLOAD PUSH1 0x0 SWAP2 PUSH1 0xFF SWAP2 DUP3 AND SWAP2 AND EQ DUP1 PUSH2 0x92C JUMPI POP PUSH1 0x2 SLOAD PUSH1 0xB SLOAD PUSH1 0xFF SWAP1 DUP2 AND PUSH2 0x100 SWAP1 SWAP3 DIV AND EQ JUMPDEST SWAP1 POP SWAP1 JUMP JUMPDEST PUSH1 0x0 DUP1 DUP3 PUSH2 0x941 JUMPI PUSH1 0x7 SLOAD PUSH2 0x945 JUMP JUMPDEST PUSH1 0xA SLOAD JUMPDEST SWAP1 POP PUSH1 0x0 DUP4 PUSH2 0x956 JUMPI PUSH1 0xA SLOAD PUSH2 0x95A JUMP JUMPDEST PUSH1 0x7 SLOAD JUMPDEST SWAP1 POP DUP1 PUSH2 0x967 DUP7 DUP5 PUSH2 0xCCF JUMP JUMPDEST PUSH2 0x971 SWAP2 SWAP1 PUSH2 0xCAF JUMP JUMPDEST PUSH2 0x97B SWAP1 DUP7 PUSH2 0xC97 JUMP JUMPDEST SWAP6 SWAP5 POP POP POP POP POP JUMP JUMPDEST PUSH1 0x2 SLOAD PUSH3 0x10000 SWAP1 DIV PUSH1 0x1 PUSH1 0x1 PUSH1 0xA0 SHL SUB AND CALLER EQ PUSH2 0x9B4 JUMPI PUSH1 0x40 MLOAD PUSH3 0x461BCD PUSH1 0xE5 SHL DUP2 MSTORE PUSH1 0x4 ADD PUSH2 0x2ED SWAP1 PUSH2 0xC60 JUMP JUMPDEST PUSH1 0x0 DUP1 DUP1 JUMPDEST PUSH1 0x5 SLOAD DUP4 LT ISZERO PUSH2 0xA75 JUMPI PUSH1 0x5 DUP4 DUP2 SLOAD DUP2 LT PUSH2 0x9E4 JUMPI PUSH4 0x4E487B71 PUSH1 0xE0 SHL PUSH1 0x0 MSTORE PUSH1 0x32 PUSH1 0x4 MSTORE PUSH1 0x24 PUSH1 0x0 REVERT JUMPDEST PUSH1 0x0 SWAP2 DUP3 MSTORE PUSH1 0x20 SWAP1 SWAP2 KECCAK256 ADD SLOAD PUSH1 0x6 DUP1 SLOAD PUSH1 0x1 PUSH1 0x1 PUSH1 0xA0 SHL SUB SWAP1 SWAP3 AND SWAP3 POP SWAP1 DUP5 SWAP1 DUP2 LT PUSH2 0xA20 JUMPI PUSH4 0x4E487B71 PUSH1 0xE0 SHL PUSH1 0x0 MSTORE PUSH1 0x32 PUSH1 0x4 MSTORE PUSH1 0x24 PUSH1 0x0 REVERT JUMPDEST PUSH1 0x0 SWAP2 DUP3 MSTORE PUSH1 0x20 DUP3 KECCAK256 ADD SLOAD PUSH1 0x40 MLOAD SWAP1 SWAP4 POP PUSH1 0x1 PUSH1 0x1 PUSH1 0xA0 SHL SUB DUP4 AND SWAP2 DUP5 ISZERO PUSH2 0x8FC MUL SWAP2 DUP6 SWAP2 DUP2 DUP2 DUP2 DUP6 DUP9 DUP9 CALL SWAP4 POP POP POP POP ISZERO DUP1 ISZERO PUSH2 0xA62 JUMPI RETURNDATASIZE PUSH1 0x0 DUP1 RETURNDATACOPY RETURNDATASIZE PUSH1 0x0 REVERT JUMPDEST POP DUP3 PUSH2 0xA6D DUP2 PUSH2 0xCEE JUMP JUMPDEST SWAP4 POP POP PUSH2 0x9B9 JUMP JUMPDEST POP POP POP JUMP JUMPDEST PUSH1 0x2 SLOAD PUSH3 0x10000 SWAP1 DIV PUSH1 0x1 PUSH1 0x1 PUSH1 0xA0 SHL SUB AND CALLER EQ PUSH2 0xAAA JUMPI PUSH1 0x40 MLOAD PUSH3 0x461BCD PUSH1 0xE5 SHL DUP2 MSTORE PUSH1 0x4 ADD PUSH2 0x2ED SWAP1 PUSH2 0xC60 JUMP JUMPDEST PUSH1 0x0 DUP1 DUP1 JUMPDEST PUSH1 0x8 SLOAD DUP4 LT ISZERO PUSH2 0xA75 JUMPI PUSH1 0x8 DUP4 DUP2 SLOAD DUP2 LT PUSH2 0xADA JUMPI PUSH4 0x4E487B71 PUSH1 0xE0 SHL PUSH1 0x0 MSTORE PUSH1 0x32 PUSH1 0x4 MSTORE PUSH1 0x24 PUSH1 0x0 REVERT JUMPDEST PUSH1 0x0 SWAP2 DUP3 MSTORE PUSH1 0x20 SWAP1 SWAP2 KECCAK256 ADD SLOAD PUSH1 0x9 DUP1 SLOAD PUSH1 0x1 PUSH1 0x1 PUSH1 0xA0 SHL SUB SWAP1 SWAP3 AND SWAP3 POP SWAP1 DUP5 SWAP1 DUP2 LT PUSH2 0xB16 JUMPI PUSH4 0x4E487B71 PUSH1 0xE0 SHL PUSH1 0x0 MSTORE PUSH1 0x32 PUSH1 0x4 MSTORE PUSH1 0x24 PUSH1 0x0 REVERT JUMPDEST PUSH1 0x0 SWAP2 DUP3 MSTORE PUSH1 0x20 DUP3 KECCAK256 ADD SLOAD PUSH1 0x40 MLOAD SWAP1 SWAP4 POP PUSH1 0x1 PUSH1 0x1 PUSH1 0xA0 SHL SUB DUP4 AND SWAP2 DUP5 ISZERO PUSH2 0x8FC MUL SWAP2 DUP6 SWAP2 DUP2 DUP2 DUP2 DUP6 DUP9 DUP9 CALL SWAP4 POP POP POP POP ISZERO DUP1 ISZERO PUSH2 0xB58 JUMPI RETURNDATASIZE PUSH1 0x0 DUP1 RETURNDATACOPY RETURNDATASIZE PUSH1 0x0 REVERT JUMPDEST POP DUP3 PUSH2 0xB63 DUP2 PUSH2 0xCEE JUMP JUMPDEST SWAP4 POP POP PUSH2 0xAAF JUMP JUMPDEST DUP3 DUP1 SLOAD DUP3 DUP3 SSTORE SWAP1 PUSH1 0x0 MSTORE PUSH1 0x20 PUSH1 0x0 KECCAK256 SWAP1 DUP2 ADD SWAP3 DUP3 ISZERO PUSH2 0xBC0 JUMPI SWAP2 PUSH1 0x20 MUL DUP3 ADD JUMPDEST DUP3 DUP2 GT ISZERO PUSH2 0xBC0 JUMPI DUP3 MLOAD DUP3 SLOAD PUSH1 0x1 PUSH1 0x1 PUSH1 0xA0 SHL SUB NOT AND PUSH1 0x1 PUSH1 0x1 PUSH1 0xA0 SHL SUB SWAP1 SWAP2 AND OR DUP3 SSTORE PUSH1 0x20 SWAP1 SWAP3 ADD SWAP2 PUSH1 0x1 SWAP1 SWAP2 ADD SWAP1 PUSH2 0xB8B JUMP JUMPDEST POP PUSH2 0xBCC SWAP3 SWAP2 POP PUSH2 0xC0B JUMP JUMPDEST POP SWAP1 JUMP JUMPDEST DUP3 DUP1 SLOAD DUP3 DUP3 SSTORE SWAP1 PUSH1 0x0 MSTORE PUSH1 0x20 PUSH1 0x0 KECCAK256 SWAP1 DUP2 ADD SWAP3 DUP3 ISZERO PUSH2 0xBC0 JUMPI SWAP2 PUSH1 0x20 MUL DUP3 ADD JUMPDEST DUP3 DUP2 GT ISZERO PUSH2 0xBC0 JUMPI DUP3 MLOAD DUP3 SSTORE SWAP2 PUSH1 0x20 ADD SWAP2 SWAP1 PUSH1 0x1 ADD SWAP1 PUSH2 0xBF0 JUMP JUMPDEST JUMPDEST DUP1 DUP3 GT ISZERO PUSH2 0xBCC JUMPI PUSH1 0x0 DUP2 SSTORE PUSH1 0x1 ADD PUSH2 0xC0C JUMP JUMPDEST PUSH1 0x0 PUSH1 0x20 DUP3 DUP5 SUB SLT ISZERO PUSH2 0xC31 JUMPI DUP1 DUP2 REVERT JUMPDEST POP CALLDATALOAD SWAP2 SWAP1 POP JUMP JUMPDEST PUSH1 0x0 PUSH1 0x20 DUP3 DUP5 SUB SLT ISZERO PUSH2 0xC49 JUMPI DUP1 DUP2 REVERT JUMPDEST DUP2 CALLDATALOAD PUSH1 0xFF DUP2 AND DUP2 EQ PUSH2 0xC59 JUMPI DUP2 DUP3 REVERT JUMPDEST SWAP4 SWAP3 POP POP POP JUMP JUMPDEST PUSH1 0x20 DUP1 DUP3 MSTORE PUSH1 0x18 SWAP1 DUP3 ADD MSTORE PUSH32 0x596F7520617265206E6F7420746865206D616E616765722E0000000000000000 PUSH1 0x40 DUP3 ADD MSTORE PUSH1 0x60 ADD SWAP1 JUMP JUMPDEST PUSH1 0x0 DUP3 NOT DUP3 GT ISZERO PUSH2 0xCAA JUMPI PUSH2 0xCAA PUSH2 0xD09 JUMP JUMPDEST POP ADD SWAP1 JUMP JUMPDEST PUSH1 0x0 DUP3 PUSH2 0xCCA JUMPI PUSH4 0x4E487B71 PUSH1 0xE0 SHL DUP2 MSTORE PUSH1 0x12 PUSH1 0x4 MSTORE PUSH1 0x24 DUP2 REVERT JUMPDEST POP DIV SWAP1 JUMP JUMPDEST PUSH1 0x0 DUP2 PUSH1 0x0 NOT DIV DUP4 GT DUP3 ISZERO ISZERO AND ISZERO PUSH2 0xCE9 JUMPI PUSH2 0xCE9 PUSH2 0xD09 JUMP JUMPDEST POP MUL SWAP1 JUMP JUMPDEST PUSH1 0x0 PUSH1 0x0 NOT DUP3 EQ ISZERO PUSH2 0xD02 JUMPI PUSH2 0xD02 PUSH2 0xD09 JUMP JUMPDEST POP PUSH1 0x1 ADD SWAP1 JUMP JUMPDEST PUSH4 0x4E487B71 PUSH1 0xE0 SHL PUSH1 0x0 MSTORE PUSH1 0x11 PUSH1 0x4 MSTORE PUSH1 0x24 PUSH1 0x0 REVERT INVALID LOG2 PUSH5 0x6970667358 0x22 SLT KECCAK256 0xCC 0xF7 0xE 0xD8 PUSH17 0x3BB42ED5BE41C240D37BBEB0E52E6D3FFB 0xE1 DUP9 PUSH20 0x5A8689A8DB638264736F6C634300080400330000 "
        },
        "methodIdentifiers": {
          "cancelBet()": "7b6d79f1",
          "createdTime()": "b2f4bdb0",
          "destroy()": "83197ef0",
          "enterWithNoRain()": "c5fd09e1",
          "enterWithRain()": "376f86b0",
          "finalWeather()": "8c507255",
          "manager()": "481c6a75",
          "noRainBetsAmount(uint256)": "bc0bdba3",
          "noRainBetsPlayers(uint256)": "376802d6",
          "payout(uint8)": "153f2b4b",
          "rainBetsAmount(uint256)": "828c3fdc",
          "rainBetsPlayers(uint256)": "d1f19d0a",
          "resetBet()": "43146f36",
          "setExpired()": "a56fa76c",
          "totalBetsonNoRain()": "c3ad9707",
          "totalBetsonRain()": "b5ec3649"
        }
      }
    }
  }
}