{
  "_format": "hh-sol-artifact-1",
  "contractName": "WeatherBet",
  "sourceName": "contracts/WeatherBet.sol",
  "abi": [
    {
      "inputs": [],
      "stateMutability": "nonpayable",
      "type": "constructor"
    },
    {
      "inputs": [],
      "name": "cancelBet",
      "outputs": [],
      "stateMutability": "nonpayable",
      "type": "function"
    },
    {
      "inputs": [],
      "name": "createdTime",
      "outputs": [
        {
          "internalType": "uint256",
          "name": "",
          "type": "uint256"
        }
      ],
      "stateMutability": "view",
      "type": "function"
    },
    {
      "inputs": [],
      "name": "destroy",
      "outputs": [],
      "stateMutability": "nonpayable",
      "type": "function"
    },
    {
      "inputs": [],
      "name": "enterWithNoRain",
      "outputs": [],
      "stateMutability": "payable",
      "type": "function"
    },
    {
      "inputs": [],
      "name": "enterWithRain",
      "outputs": [],
      "stateMutability": "payable",
      "type": "function"
    },
    {
      "inputs": [],
      "name": "finalWeather",
      "outputs": [
        {
          "internalType": "uint8",
          "name": "",
          "type": "uint8"
        }
      ],
      "stateMutability": "view",
      "type": "function"
    },
    {
      "inputs": [],
      "name": "manager",
      "outputs": [
        {
          "internalType": "address",
          "name": "",
          "type": "address"
        }
      ],
      "stateMutability": "view",
      "type": "function"
    },
    {
      "inputs": [
        {
          "internalType": "uint256",
          "name": "",
          "type": "uint256"
        }
      ],
      "name": "noRainBetsAmount",
      "outputs": [
        {
          "internalType": "uint256",
          "name": "",
          "type": "uint256"
        }
      ],
      "stateMutability": "view",
      "type": "function"
    },
    {
      "inputs": [
        {
          "internalType": "uint256",
          "name": "",
          "type": "uint256"
        }
      ],
      "name": "noRainBetsPlayers",
      "outputs": [
        {
          "internalType": "address payable",
          "name": "",
          "type": "address"
        }
      ],
      "stateMutability": "view",
      "type": "function"
    },
    {
      "inputs": [
        {
          "internalType": "uint8",
          "name": "_finalWeather",
          "type": "uint8"
        }
      ],
      "name": "payout",
      "outputs": [],
      "stateMutability": "nonpayable",
      "type": "function"
    },
    {
      "inputs": [
        {
          "internalType": "uint256",
          "name": "",
          "type": "uint256"
        }
      ],
      "name": "rainBetsAmount",
      "outputs": [
        {
          "internalType": "uint256",
          "name": "",
          "type": "uint256"
        }
      ],
      "stateMutability": "view",
      "type": "function"
    },
    {
      "inputs": [
        {
          "internalType": "uint256",
          "name": "",
          "type": "uint256"
        }
      ],
      "name": "rainBetsPlayers",
      "outputs": [
        {
          "internalType": "address payable",
          "name": "",
          "type": "address"
        }
      ],
      "stateMutability": "view",
      "type": "function"
    },
    {
      "inputs": [],
      "name": "setExpired",
      "outputs": [],
      "stateMutability": "nonpayable",
      "type": "function"
    },
    {
      "inputs": [],
      "name": "totalBetsonNoRain",
      "outputs": [
        {
          "internalType": "uint256",
          "name": "",
          "type": "uint256"
        }
      ],
      "stateMutability": "view",
      "type": "function"
    },
    {
      "inputs": [],
      "name": "totalBetsonRain",
      "outputs": [
        {
          "internalType": "uint256",
          "name": "",
          "type": "uint256"
        }
      ],
      "stateMutability": "view",
      "type": "function"
    }
  ],
  "bytecode": "0x608060405262015180600055662386f26fc100006001556002805461ffff191661020117905534801561003157600080fd5b506002805462010000600160b01b03191633620100000217905542600355610d358061005e6000396000f3fe6080604052600436106100e85760003560e01c80638c5072551161008a578063bc0bdba311610059578063bc0bdba31461023f578063c3ad97071461025f578063c5fd09e114610275578063d1f19d0a1461027d57600080fd5b80638c507255146101d2578063a56fa76c146101fe578063b2f4bdb014610213578063b5ec36491461022957600080fd5b8063481c6a75116100c6578063481c6a75146101545780637b6d79f11461017a578063828c3fdc1461018f57806383197ef0146101bd57600080fd5b8063153f2b4b146100ed578063376802d61461010f578063376f86b01461014c575b600080fd5b3480156100f957600080fd5b5061010d610108366004610c18565b61029d565b005b34801561011b57600080fd5b5061012f61012a366004610c00565b61046c565b6040516001600160a01b0390911681526020015b60405180910390f35b61010d610496565b34801561016057600080fd5b5060025461012f906201000090046001600160a01b031681565b34801561018657600080fd5b5061010d6105c8565b34801561019b57600080fd5b506101af6101aa366004610c00565b610612565b604051908152602001610143565b3480156101c957600080fd5b5061010d610633565b3480156101de57600080fd5b50600b546101ec9060ff1681565b60405160ff9091168152602001610143565b34801561020a57600080fd5b5061010d610687565b34801561021f57600080fd5b506101af60035481565b34801561023557600080fd5b506101af60075481565b34801561024b57600080fd5b506101af61025a366004610c00565b6106c6565b34801561026b57600080fd5b506101af600a5481565b61010d6106d6565b34801561028957600080fd5b5061012f610298366004610c00565b610801565b6002546201000090046001600160a01b031633146102d65760405162461bcd60e51b81526004016102cd90610c40565b60405180910390fd5b600b805460ff191660ff83161790556102ed610811565b6103455760405162461bcd60e51b815260206004820152602360248201527f5765617468657220686173206e6f74206265656e20616e6e6f756e636564207960448201526232ba1760e91b60648201526084016102cd565b6000610356600b5460ff1660011490565b610361576008610364565b60055b90506000610377600b5460ff1660011490565b610382576009610385565b60065b905060005b82548110156104665760008382815481106103b557634e487b7160e01b600052603260045260246000fd5b600091825260208220015484546001600160a01b0390911692508490849081106103ef57634e487b7160e01b600052603260045260246000fd5b90600052602060002001549050600061041682610411600b5460ff1660011490565b610841565b6040519091506001600160a01b0384169082156108fc029083906000818181858888f1935050505015801561044f573d6000803e3d6000fd5b50505050808061045e90610cce565b91505061038a565b50505050565b6008818154811061047c57600080fd5b6000918252602090912001546001600160a01b0316905081565b6001543410156104e85760405162461bcd60e51b815260206004820152601a60248201527f4d696e696d756d2062657420697320302e30312065746865722e00000000000060448201526064016102cd565b60045460ff161561053b5760405162461bcd60e51b815260206004820152601e60248201527f54696d6520657870697265642e20416374696f6e2072656a65637465642e000060448201526064016102cd565b6005805460018181019092557f036b6384b5eca791c62761152d0c79bb0604c104a5fb6f4eb0703f3154bb3db00180546001600160a01b031916331790556006805491820181556000908152347ff652222313e28459528d920b65115c16c04f3efc82aaedc97be59f3f377c0d3f909201829055600780549091906105c1908490610c77565b9091555050565b6002546201000090046001600160a01b031633146105f85760405162461bcd60e51b81526004016102cd90610c40565b610600610894565b61060861098a565b610610610a7b565b565b6006818154811061062257600080fd5b600091825260209091200154905081565b6002546201000090046001600160a01b031633146106635760405162461bcd60e51b81526004016102cd90610c40565b61066b610894565b61067361098a565b6002546201000090046001600160a01b0316ff5b6002546201000090046001600160a01b031633146106b75760405162461bcd60e51b81526004016102cd90610c40565b6004805460ff19166001179055565b6009818154811061062257600080fd5b6001543410156107285760405162461bcd60e51b815260206004820152601a60248201527f4d696e696d756d2062657420697320302e30312065746865722e00000000000060448201526064016102cd565b60045460ff161561077b5760405162461bcd60e51b815260206004820152601e60248201527f54696d6520657870697265642e20416374696f6e2072656a65637465642e000060448201526064016102cd565b6008805460018181019092557ff3f7a9fe364faab93b216da50a3214154f22a0a2b415b23a84c8169e8b636ee30180546001600160a01b031916331790556009805491820181556000908152347f6e1540171b6c0c960b71a7020d9f60077f6af931a8bbf590da0223dacf75c7af909201829055600a80549091906105c1908490610c77565b6005818154811061047c57600080fd5b600254600b5460009160ff9182169116148061083c5750600254600b5460ff90811661010090920416145b905090565b6000808261085157600754610855565b600a545b905060008361086657600a5461086a565b6007545b9050806108778684610caf565b6108819190610c8f565b61088b9086610c77565b95945050505050565b6002546201000090046001600160a01b031633146108c45760405162461bcd60e51b81526004016102cd90610c40565b600080805b60055483101561098557600583815481106108f457634e487b7160e01b600052603260045260246000fd5b600091825260209091200154600680546001600160a01b039092169250908490811061093057634e487b7160e01b600052603260045260246000fd5b60009182526020822001546040519093506001600160a01b0383169184156108fc02918591818181858888f19350505050158015610972573d6000803e3d6000fd5b508261097d81610cce565b9350506108c9565b505050565b6002546201000090046001600160a01b031633146109ba5760405162461bcd60e51b81526004016102cd90610c40565b600080805b60085483101561098557600883815481106109ea57634e487b7160e01b600052603260045260246000fd5b600091825260209091200154600980546001600160a01b0390921692509084908110610a2657634e487b7160e01b600052603260045260246000fd5b60009182526020822001546040519093506001600160a01b0383169184156108fc02918591818181858888f19350505050158015610a68573d6000803e3d6000fd5b5082610a7381610cce565b9350506109bf565b6002546201000090046001600160a01b03163314610aab5760405162461bcd60e51b81526004016102cd90610c40565b6040805160008152602081019182905251610ac891600591610b4b565b506040805160008152602081019182905251610ae691600691610bb0565b50600060078190556040805191825260208201908190529051610b0b91600891610b4b565b506040805160008152602081019182905251610b2991600991610bb0565b506000600a55600b805460ff1990811690915542600355600480549091169055565b828054828255906000526020600020908101928215610ba0579160200282015b82811115610ba057825182546001600160a01b0319166001600160a01b03909116178255602090920191600190910190610b6b565b50610bac929150610beb565b5090565b828054828255906000526020600020908101928215610ba0579160200282015b82811115610ba0578251825591602001919060010190610bd0565b5b80821115610bac5760008155600101610bec565b600060208284031215610c11578081fd5b5035919050565b600060208284031215610c29578081fd5b813560ff81168114610c39578182fd5b9392505050565b60208082526018908201527f596f7520617265206e6f7420746865206d616e616765722e0000000000000000604082015260600190565b60008219821115610c8a57610c8a610ce9565b500190565b600082610caa57634e487b7160e01b81526012600452602481fd5b500490565b6000816000190483118215151615610cc957610cc9610ce9565b500290565b6000600019821415610ce257610ce2610ce9565b5060010190565b634e487b7160e01b600052601160045260246000fdfea2646970667358221220af6c378906a999d991ac5a2bae02f9c58853793e9492b2646991b9388c67b8f364736f6c63430008040033",
  "linkReferences": {},
  "deployedLinkReferences": {}
}