{
  "_format": "hh-sol-artifact-1",
  "contractName": "WeatherBet",
  "sourceName": "contracts/WeatherBet.sol",
  "abi": [
    {
      "inputs": [],
      "stateMutability": "nonpayable",
      "type": "constructor"
    },
    {
      "inputs": [],
      "name": "cancelBet",
      "outputs": [],
      "stateMutability": "nonpayable",
      "type": "function"
    },
    {
      "inputs": [],
      "name": "createdTime",
      "outputs": [
        {
          "internalType": "uint256",
          "name": "",
          "type": "uint256"
        }
      ],
      "stateMutability": "view",
      "type": "function"
    },
    {
      "inputs": [],
      "name": "destroy",
      "outputs": [],
      "stateMutability": "nonpayable",
      "type": "function"
    },
    {
      "inputs": [],
      "name": "enterWithNoRain",
      "outputs": [],
      "stateMutability": "payable",
      "type": "function"
    },
    {
      "inputs": [],
      "name": "enterWithRain",
      "outputs": [],
      "stateMutability": "payable",
      "type": "function"
    },
    {
      "inputs": [],
      "name": "finalWeather",
      "outputs": [
        {
          "internalType": "uint8",
          "name": "",
          "type": "uint8"
        }
      ],
      "stateMutability": "view",
      "type": "function"
    },
    {
      "inputs": [],
      "name": "manager",
      "outputs": [
        {
          "internalType": "address",
          "name": "",
          "type": "address"
        }
      ],
      "stateMutability": "view",
      "type": "function"
    },
    {
      "inputs": [
        {
          "internalType": "uint256",
          "name": "",
          "type": "uint256"
        }
      ],
      "name": "noRainBetsAmount",
      "outputs": [
        {
          "internalType": "uint256",
          "name": "",
          "type": "uint256"
        }
      ],
      "stateMutability": "view",
      "type": "function"
    },
    {
      "inputs": [
        {
          "internalType": "uint256",
          "name": "",
          "type": "uint256"
        }
      ],
      "name": "noRainBetsPlayers",
      "outputs": [
        {
          "internalType": "address payable",
          "name": "",
          "type": "address"
        }
      ],
      "stateMutability": "view",
      "type": "function"
    },
    {
      "inputs": [
        {
          "internalType": "uint8",
          "name": "_finalWeather",
          "type": "uint8"
        }
      ],
      "name": "payout",
      "outputs": [],
      "stateMutability": "nonpayable",
      "type": "function"
    },
    {
      "inputs": [
        {
          "internalType": "uint256",
          "name": "",
          "type": "uint256"
        }
      ],
      "name": "rainBetsAmount",
      "outputs": [
        {
          "internalType": "uint256",
          "name": "",
          "type": "uint256"
        }
      ],
      "stateMutability": "view",
      "type": "function"
    },
    {
      "inputs": [
        {
          "internalType": "uint256",
          "name": "",
          "type": "uint256"
        }
      ],
      "name": "rainBetsPlayers",
      "outputs": [
        {
          "internalType": "address payable",
          "name": "",
          "type": "address"
        }
      ],
      "stateMutability": "view",
      "type": "function"
    },
    {
      "inputs": [],
      "name": "resetBet",
      "outputs": [],
      "stateMutability": "nonpayable",
      "type": "function"
    },
    {
      "inputs": [],
      "name": "setExpired",
      "outputs": [],
      "stateMutability": "nonpayable",
      "type": "function"
    },
    {
      "inputs": [],
      "name": "totalBetsonNoRain",
      "outputs": [
        {
          "internalType": "uint256",
          "name": "",
          "type": "uint256"
        }
      ],
      "stateMutability": "view",
      "type": "function"
    },
    {
      "inputs": [],
      "name": "totalBetsonRain",
      "outputs": [
        {
          "internalType": "uint256",
          "name": "",
          "type": "uint256"
        }
      ],
      "stateMutability": "view",
      "type": "function"
    }
  ],
  "bytecode": "0x608060405262015180600055662386f26fc100006001556002805461ffff191661020117905534801561003157600080fd5b506002805462010000600160b01b03191633620100000217905542600355610d558061005e6000396000f3fe6080604052600436106100f35760003560e01c80638c5072551161008a578063bc0bdba311610059578063bc0bdba31461025f578063c3ad97071461027f578063c5fd09e114610295578063d1f19d0a1461029d57600080fd5b80638c507255146101f2578063a56fa76c1461021e578063b2f4bdb014610233578063b5ec36491461024957600080fd5b8063481c6a75116100c6578063481c6a75146101745780637b6d79f11461019a578063828c3fdc146101af57806383197ef0146101dd57600080fd5b8063153f2b4b146100f8578063376802d61461011a578063376f86b01461015757806343146f361461015f575b600080fd5b34801561010457600080fd5b50610118610113366004610c38565b6102bd565b005b34801561012657600080fd5b5061013a610135366004610c20565b61048c565b6040516001600160a01b0390911681526020015b60405180910390f35b6101186104b6565b34801561016b57600080fd5b506101186105e8565b34801561018057600080fd5b5060025461013a906201000090046001600160a01b031681565b3480156101a657600080fd5b506101186106b8565b3480156101bb57600080fd5b506101cf6101ca366004610c20565b610702565b60405190815260200161014e565b3480156101e957600080fd5b50610118610723565b3480156101fe57600080fd5b50600b5461020c9060ff1681565b60405160ff909116815260200161014e565b34801561022a57600080fd5b50610118610777565b34801561023f57600080fd5b506101cf60035481565b34801561025557600080fd5b506101cf60075481565b34801561026b57600080fd5b506101cf61027a366004610c20565b6107b6565b34801561028b57600080fd5b506101cf600a5481565b6101186107c6565b3480156102a957600080fd5b5061013a6102b8366004610c20565b6108f1565b6002546201000090046001600160a01b031633146102f65760405162461bcd60e51b81526004016102ed90610c60565b60405180910390fd5b600b805460ff191660ff831617905561030d610901565b6103655760405162461bcd60e51b815260206004820152602360248201527f5765617468657220686173206e6f74206265656e20616e6e6f756e636564207960448201526232ba1760e91b60648201526084016102ed565b6000610376600b5460ff1660011490565b610381576008610384565b60055b90506000610397600b5460ff1660011490565b6103a25760096103a5565b60065b905060005b82548110156104865760008382815481106103d557634e487b7160e01b600052603260045260246000fd5b600091825260208220015484546001600160a01b03909116925084908490811061040f57634e487b7160e01b600052603260045260246000fd5b90600052602060002001549050600061043682610431600b5460ff1660011490565b610931565b6040519091506001600160a01b0384169082156108fc029083906000818181858888f1935050505015801561046f573d6000803e3d6000fd5b50505050808061047e90610cee565b9150506103aa565b50505050565b6008818154811061049c57600080fd5b6000918252602090912001546001600160a01b0316905081565b6001543410156105085760405162461bcd60e51b815260206004820152601a60248201527f4d696e696d756d2062657420697320302e30312065746865722e00000000000060448201526064016102ed565b60045460ff161561055b5760405162461bcd60e51b815260206004820152601e60248201527f54696d6520657870697265642e20416374696f6e2072656a65637465642e000060448201526064016102ed565b6005805460018181019092557f036b6384b5eca791c62761152d0c79bb0604c104a5fb6f4eb0703f3154bb3db00180546001600160a01b031916331790556006805491820181556000908152347ff652222313e28459528d920b65115c16c04f3efc82aaedc97be59f3f377c0d3f909201829055600780549091906105e1908490610c97565b9091555050565b6002546201000090046001600160a01b031633146106185760405162461bcd60e51b81526004016102ed90610c60565b604080516000815260208101918290525161063591600591610b6b565b50604080516000815260208101918290525161065391600691610bd0565b5060006007819055604080519182526020820190819052905161067891600891610b6b565b50604080516000815260208101918290525161069691600991610bd0565b506000600a55600b805460ff1990811690915542600355600480549091169055565b6002546201000090046001600160a01b031633146106e85760405162461bcd60e51b81526004016102ed90610c60565b6106f0610984565b6106f8610a7a565b6107006105e8565b565b6006818154811061071257600080fd5b600091825260209091200154905081565b6002546201000090046001600160a01b031633146107535760405162461bcd60e51b81526004016102ed90610c60565b61075b610984565b610763610a7a565b6002546201000090046001600160a01b0316ff5b6002546201000090046001600160a01b031633146107a75760405162461bcd60e51b81526004016102ed90610c60565b6004805460ff19166001179055565b6009818154811061071257600080fd5b6001543410156108185760405162461bcd60e51b815260206004820152601a60248201527f4d696e696d756d2062657420697320302e30312065746865722e00000000000060448201526064016102ed565b60045460ff161561086b5760405162461bcd60e51b815260206004820152601e60248201527f54696d6520657870697265642e20416374696f6e2072656a65637465642e000060448201526064016102ed565b6008805460018181019092557ff3f7a9fe364faab93b216da50a3214154f22a0a2b415b23a84c8169e8b636ee30180546001600160a01b031916331790556009805491820181556000908152347f6e1540171b6c0c960b71a7020d9f60077f6af931a8bbf590da0223dacf75c7af909201829055600a80549091906105e1908490610c97565b6005818154811061049c57600080fd5b600254600b5460009160ff9182169116148061092c5750600254600b5460ff90811661010090920416145b905090565b6000808261094157600754610945565b600a545b905060008361095657600a5461095a565b6007545b9050806109678684610ccf565b6109719190610caf565b61097b9086610c97565b95945050505050565b6002546201000090046001600160a01b031633146109b45760405162461bcd60e51b81526004016102ed90610c60565b600080805b600554831015610a7557600583815481106109e457634e487b7160e01b600052603260045260246000fd5b600091825260209091200154600680546001600160a01b0390921692509084908110610a2057634e487b7160e01b600052603260045260246000fd5b60009182526020822001546040519093506001600160a01b0383169184156108fc02918591818181858888f19350505050158015610a62573d6000803e3d6000fd5b5082610a6d81610cee565b9350506109b9565b505050565b6002546201000090046001600160a01b03163314610aaa5760405162461bcd60e51b81526004016102ed90610c60565b600080805b600854831015610a755760088381548110610ada57634e487b7160e01b600052603260045260246000fd5b600091825260209091200154600980546001600160a01b0390921692509084908110610b1657634e487b7160e01b600052603260045260246000fd5b60009182526020822001546040519093506001600160a01b0383169184156108fc02918591818181858888f19350505050158015610b58573d6000803e3d6000fd5b5082610b6381610cee565b935050610aaf565b828054828255906000526020600020908101928215610bc0579160200282015b82811115610bc057825182546001600160a01b0319166001600160a01b03909116178255602090920191600190910190610b8b565b50610bcc929150610c0b565b5090565b828054828255906000526020600020908101928215610bc0579160200282015b82811115610bc0578251825591602001919060010190610bf0565b5b80821115610bcc5760008155600101610c0c565b600060208284031215610c31578081fd5b5035919050565b600060208284031215610c49578081fd5b813560ff81168114610c59578182fd5b9392505050565b60208082526018908201527f596f7520617265206e6f7420746865206d616e616765722e0000000000000000604082015260600190565b60008219821115610caa57610caa610d09565b500190565b600082610cca57634e487b7160e01b81526012600452602481fd5b500490565b6000816000190483118215151615610ce957610ce9610d09565b500290565b6000600019821415610d0257610d02610d09565b5060010190565b634e487b7160e01b600052601160045260246000fdfea2646970667358221220ccf70ed8703bb42ed5be41c240d37bbeb0e52e6d3ffbe188735a8689a8db638264736f6c63430008040033",
  "linkReferences": {},
  "deployedLinkReferences": {}
}