{
  "_format": "hh-sol-artifact-1",
  "contractName": "WeatherBet",
  "sourceName": "contracts/WeatherBet.sol",
  "abi": [
    {
      "inputs": [],
      "stateMutability": "nonpayable",
      "type": "constructor"
    },
    {
      "inputs": [],
      "name": "cancelBet",
      "outputs": [],
      "stateMutability": "nonpayable",
      "type": "function"
    },
    {
      "inputs": [],
      "name": "createdTime",
      "outputs": [
        {
          "internalType": "uint256",
          "name": "",
          "type": "uint256"
        }
      ],
      "stateMutability": "view",
      "type": "function"
    },
    {
      "inputs": [],
      "name": "destroy",
      "outputs": [],
      "stateMutability": "nonpayable",
      "type": "function"
    },
    {
      "inputs": [],
      "name": "enterWithNoRain",
      "outputs": [],
      "stateMutability": "payable",
      "type": "function"
    },
    {
      "inputs": [],
      "name": "enterWithRain",
      "outputs": [],
      "stateMutability": "payable",
      "type": "function"
    },
    {
      "inputs": [],
      "name": "finalWeather",
      "outputs": [
        {
          "internalType": "uint8",
          "name": "",
          "type": "uint8"
        }
      ],
      "stateMutability": "view",
      "type": "function"
    },
    {
      "inputs": [],
      "name": "manager",
      "outputs": [
        {
          "internalType": "address",
          "name": "",
          "type": "address"
        }
      ],
      "stateMutability": "view",
      "type": "function"
    },
    {
      "inputs": [
        {
          "internalType": "uint256",
          "name": "",
          "type": "uint256"
        }
      ],
      "name": "noRainBetsAmount",
      "outputs": [
        {
          "internalType": "uint256",
          "name": "",
          "type": "uint256"
        }
      ],
      "stateMutability": "view",
      "type": "function"
    },
    {
      "inputs": [
        {
          "internalType": "uint256",
          "name": "",
          "type": "uint256"
        }
      ],
      "name": "noRainBetsPlayers",
      "outputs": [
        {
          "internalType": "address payable",
          "name": "",
          "type": "address"
        }
      ],
      "stateMutability": "view",
      "type": "function"
    },
    {
      "inputs": [
        {
          "internalType": "uint8",
          "name": "_finalWeather",
          "type": "uint8"
        }
      ],
      "name": "payout",
      "outputs": [],
      "stateMutability": "nonpayable",
      "type": "function"
    },
    {
      "inputs": [
        {
          "internalType": "uint256",
          "name": "",
          "type": "uint256"
        }
      ],
      "name": "rainBetsAmount",
      "outputs": [
        {
          "internalType": "uint256",
          "name": "",
          "type": "uint256"
        }
      ],
      "stateMutability": "view",
      "type": "function"
    },
    {
      "inputs": [
        {
          "internalType": "uint256",
          "name": "",
          "type": "uint256"
        }
      ],
      "name": "rainBetsPlayers",
      "outputs": [
        {
          "internalType": "address payable",
          "name": "",
          "type": "address"
        }
      ],
      "stateMutability": "view",
      "type": "function"
    },
    {
      "inputs": [],
      "name": "totalBetsonNoRain",
      "outputs": [
        {
          "internalType": "uint256",
          "name": "",
          "type": "uint256"
        }
      ],
      "stateMutability": "view",
      "type": "function"
    },
    {
      "inputs": [],
      "name": "totalBetsonRain",
      "outputs": [
        {
          "internalType": "uint256",
          "name": "",
          "type": "uint256"
        }
      ],
      "stateMutability": "view",
      "type": "function"
    }
  ],
  "bytecode": "0x608060405262015180600055662386f26fc100006001556002805461ffff191661020117905534801561003157600080fd5b506002805462010000600160b01b03191633620100000217905542600355610ce28061005e6000396000f3fe6080604052600436106100dd5760003560e01c80638c5072551161007f578063bc0bdba311610059578063bc0bdba31461021f578063c3ad97071461023f578063c5fd09e114610255578063d1f19d0a1461025d57600080fd5b80638c507255146101c7578063b2f4bdb0146101f3578063b5ec36491461020957600080fd5b8063481c6a75116100bb578063481c6a75146101495780637b6d79f11461016f578063828c3fdc1461018457806383197ef0146101b257600080fd5b8063153f2b4b146100e2578063376802d614610104578063376f86b014610141575b600080fd5b3480156100ee57600080fd5b506101026100fd366004610bc5565b61027d565b005b34801561011057600080fd5b5061012461011f366004610bad565b61044c565b6040516001600160a01b0390911681526020015b60405180910390f35b610102610476565b34801561015557600080fd5b50600254610124906201000090046001600160a01b031681565b34801561017b57600080fd5b506101026105b4565b34801561019057600080fd5b506101a461019f366004610bad565b6105fe565b604051908152602001610138565b3480156101be57600080fd5b5061010261061f565b3480156101d357600080fd5b50600a546101e19060ff1681565b60405160ff9091168152602001610138565b3480156101ff57600080fd5b506101a460035481565b34801561021557600080fd5b506101a460065481565b34801561022b57600080fd5b506101a461023a366004610bad565b610673565b34801561024b57600080fd5b506101a460095481565b610102610683565b34801561026957600080fd5b50610124610278366004610bad565b6107ba565b6002546201000090046001600160a01b031633146102b65760405162461bcd60e51b81526004016102ad90610bed565b60405180910390fd5b600a805460ff191660ff83161790556102cd6107ca565b6103255760405162461bcd60e51b815260206004820152602360248201527f5765617468657220686173206e6f74206265656e20616e6e6f756e636564207960448201526232ba1760e91b60648201526084016102ad565b6000610336600a5460ff1660011490565b610341576007610344565b60045b90506000610357600a5460ff1660011490565b610362576008610365565b60055b905060005b825481101561044657600083828154811061039557634e487b7160e01b600052603260045260246000fd5b600091825260208220015484546001600160a01b0390911692508490849081106103cf57634e487b7160e01b600052603260045260246000fd5b9060005260206000200154905060006103f6826103f1600a5460ff1660011490565b6107fa565b6040519091506001600160a01b0384169082156108fc029083906000818181858888f1935050505015801561042f573d6000803e3d6000fd5b50505050808061043e90610c7b565b91505061036a565b50505050565b6007818154811061045c57600080fd5b6000918252602090912001546001600160a01b0316905081565b6001543410156104c85760405162461bcd60e51b815260206004820152601a60248201527f4d696e696d756d2062657420697320302e30312065746865722e00000000000060448201526064016102ad565b6000546003546104d89190610c24565b4211156105275760405162461bcd60e51b815260206004820152601e60248201527f54696d6520657870697265642e20416374696f6e2072656a65637465642e000060448201526064016102ad565b6004805460018181019092557f8a35acfbc15ff81a39ae7d344fd709f28e8600b4aa8c65c6b64bfe7fe36bd19b0180546001600160a01b031916331790556005805491820181556000908152347f036b6384b5eca791c62761152d0c79bb0604c104a5fb6f4eb0703f3154bb3db0909201829055600680549091906105ad908490610c24565b9091555050565b6002546201000090046001600160a01b031633146105e45760405162461bcd60e51b81526004016102ad90610bed565b6105ec61084d565b6105f4610943565b6105fc610a34565b565b6005818154811061060e57600080fd5b600091825260209091200154905081565b6002546201000090046001600160a01b0316331461064f5760405162461bcd60e51b81526004016102ad90610bed565b61065761084d565b61065f610943565b6002546201000090046001600160a01b0316ff5b6008818154811061060e57600080fd5b6001543410156106d55760405162461bcd60e51b815260206004820152601a60248201527f4d696e696d756d2062657420697320302e30312065746865722e00000000000060448201526064016102ad565b6000546003546106e59190610c24565b4211156107345760405162461bcd60e51b815260206004820152601e60248201527f54696d6520657870697265642e20416374696f6e2072656a65637465642e000060448201526064016102ad565b6007805460018181019092557fa66cc928b5edb82af9bd49922954155ab7b0942694bea4ce44661d9a8736c6880180546001600160a01b031916331790556008805491820181556000908152347ff3f7a9fe364faab93b216da50a3214154f22a0a2b415b23a84c8169e8b636ee3909201829055600980549091906105ad908490610c24565b6004818154811061045c57600080fd5b600254600a5460009160ff918216911614806107f55750600254600a5460ff90811661010090920416145b905090565b6000808261080a5760065461080e565b6009545b905060008361081f57600954610823565b6006545b9050806108308684610c5c565b61083a9190610c3c565b6108449086610c24565b95945050505050565b6002546201000090046001600160a01b0316331461087d5760405162461bcd60e51b81526004016102ad90610bed565b600080805b60045483101561093e57600483815481106108ad57634e487b7160e01b600052603260045260246000fd5b600091825260209091200154600580546001600160a01b03909216925090849081106108e957634e487b7160e01b600052603260045260246000fd5b60009182526020822001546040519093506001600160a01b0383169184156108fc02918591818181858888f1935050505015801561092b573d6000803e3d6000fd5b508261093681610c7b565b935050610882565b505050565b6002546201000090046001600160a01b031633146109735760405162461bcd60e51b81526004016102ad90610bed565b600080805b60075483101561093e57600783815481106109a357634e487b7160e01b600052603260045260246000fd5b600091825260209091200154600880546001600160a01b03909216925090849081106109df57634e487b7160e01b600052603260045260246000fd5b60009182526020822001546040519093506001600160a01b0383169184156108fc02918591818181858888f19350505050158015610a21573d6000803e3d6000fd5b5082610a2c81610c7b565b935050610978565b6002546201000090046001600160a01b03163314610a645760405162461bcd60e51b81526004016102ad90610bed565b6040805160008152602081019182905251610a8191600491610af8565b506040805160008152602081019182905251610a9f91600591610b5d565b50600060068190556040805191825260208201908190529051610ac491600791610af8565b506040805160008152602081019182905251610ae291600891610b5d565b506000600955600a805460ff1916905542600355565b828054828255906000526020600020908101928215610b4d579160200282015b82811115610b4d57825182546001600160a01b0319166001600160a01b03909116178255602090920191600190910190610b18565b50610b59929150610b98565b5090565b828054828255906000526020600020908101928215610b4d579160200282015b82811115610b4d578251825591602001919060010190610b7d565b5b80821115610b595760008155600101610b99565b600060208284031215610bbe578081fd5b5035919050565b600060208284031215610bd6578081fd5b813560ff81168114610be6578182fd5b9392505050565b60208082526018908201527f596f7520617265206e6f7420746865206d616e616765722e0000000000000000604082015260600190565b60008219821115610c3757610c37610c96565b500190565b600082610c5757634e487b7160e01b81526012600452602481fd5b500490565b6000816000190483118215151615610c7657610c76610c96565b500290565b6000600019821415610c8f57610c8f610c96565b5060010190565b634e487b7160e01b600052601160045260246000fdfea264697066735822122086b8d159bda663ba5ca73a109d6abb910964a666c5391a1d30235e2627d438aa64736f6c63430008040033",
  "linkReferences": {},
  "deployedLinkReferences": {}
}