{
  "contractName": "WeatherBet",
  "abi": [
    {
      "inputs": [],
      "stateMutability": "nonpayable",
      "type": "constructor"
    },
    {
      "inputs": [],
      "name": "createdTime",
      "outputs": [
        {
          "internalType": "uint256",
          "name": "",
          "type": "uint256"
        }
      ],
      "stateMutability": "view",
      "type": "function"
    },
    {
      "inputs": [],
      "name": "finalWeather",
      "outputs": [
        {
          "internalType": "uint8",
          "name": "",
          "type": "uint8"
        }
      ],
      "stateMutability": "view",
      "type": "function"
    },
    {
      "inputs": [],
      "name": "manager",
      "outputs": [
        {
          "internalType": "address",
          "name": "",
          "type": "address"
        }
      ],
      "stateMutability": "view",
      "type": "function"
    },
    {
      "inputs": [
        {
          "internalType": "uint256",
          "name": "",
          "type": "uint256"
        }
      ],
      "name": "noRainBetsAmount",
      "outputs": [
        {
          "internalType": "uint256",
          "name": "",
          "type": "uint256"
        }
      ],
      "stateMutability": "view",
      "type": "function"
    },
    {
      "inputs": [
        {
          "internalType": "uint256",
          "name": "",
          "type": "uint256"
        }
      ],
      "name": "noRainBetsPlayers",
      "outputs": [
        {
          "internalType": "address payable",
          "name": "",
          "type": "address"
        }
      ],
      "stateMutability": "view",
      "type": "function"
    },
    {
      "inputs": [
        {
          "internalType": "uint256",
          "name": "",
          "type": "uint256"
        }
      ],
      "name": "rainBetsAmount",
      "outputs": [
        {
          "internalType": "uint256",
          "name": "",
          "type": "uint256"
        }
      ],
      "stateMutability": "view",
      "type": "function"
    },
    {
      "inputs": [
        {
          "internalType": "uint256",
          "name": "",
          "type": "uint256"
        }
      ],
      "name": "rainBetsPlayers",
      "outputs": [
        {
          "internalType": "address payable",
          "name": "",
          "type": "address"
        }
      ],
      "stateMutability": "view",
      "type": "function"
    },
    {
      "inputs": [],
      "name": "totalBetsonNoRain",
      "outputs": [
        {
          "internalType": "uint256",
          "name": "",
          "type": "uint256"
        }
      ],
      "stateMutability": "view",
      "type": "function"
    },
    {
      "inputs": [],
      "name": "totalBetsonRain",
      "outputs": [
        {
          "internalType": "uint256",
          "name": "",
          "type": "uint256"
        }
      ],
      "stateMutability": "view",
      "type": "function"
    },
    {
      "inputs": [],
      "name": "enterWithRain",
      "outputs": [],
      "stateMutability": "payable",
      "type": "function"
    },
    {
      "inputs": [],
      "name": "enterWithNoRain",
      "outputs": [],
      "stateMutability": "payable",
      "type": "function"
    },
    {
      "inputs": [
        {
          "internalType": "uint8",
          "name": "_finalWeather",
          "type": "uint8"
        }
      ],
      "name": "payout",
      "outputs": [],
      "stateMutability": "nonpayable",
      "type": "function"
    },
    {
      "inputs": [],
      "name": "cancelBet",
      "outputs": [],
      "stateMutability": "nonpayable",
      "type": "function"
    },
    {
      "inputs": [],
      "name": "destroy",
      "outputs": [],
      "stateMutability": "nonpayable",
      "type": "function"
    }
  ],
  "bytecode": "0x608060405262015180600055662386f26fc1000060015534801561002257600080fd5b5033600260006101000a81548173ffffffffffffffffffffffffffffffffffffffff021916908373ffffffffffffffffffffffffffffffffffffffff160217905550426003819055506117108061007a6000396000f3fe6080604052600436106100dd5760003560e01c80638c5072551161007f578063bc0bdba311610059578063bc0bdba314610269578063c3ad9707146102a6578063c5fd09e1146102d1578063d1f19d0a146102db576100dd565b80638c507255146101e8578063b2f4bdb014610213578063b5ec36491461023e576100dd565b8063481c6a75116100bb578063481c6a75146101525780637b6d79f11461017d578063828c3fdc1461019457806383197ef0146101d1576100dd565b8063153f2b4b146100e2578063376802d61461010b578063376f86b014610148575b600080fd5b3480156100ee57600080fd5b5061010960048036038101906101049190611163565b610318565b005b34801561011757600080fd5b50610132600480360381019061012d91906111c6565b61053f565b60405161013f9190611234565b60405180910390f35b61015061057e565b005b34801561015e57600080fd5b506101676106bc565b6040516101749190611270565b60405180910390f35b34801561018957600080fd5b506101926106e2565b005b3480156101a057600080fd5b506101bb60048036038101906101b691906111c6565b61078c565b6040516101c8919061129a565b60405180910390f35b3480156101dd57600080fd5b506101e66107b0565b005b3480156101f457600080fd5b506101fd61088b565b60405161020a91906112c4565b60405180910390f35b34801561021f57600080fd5b5061022861089e565b604051610235919061129a565b60405180910390f35b34801561024a57600080fd5b506102536108a4565b604051610260919061129a565b60405180910390f35b34801561027557600080fd5b50610290600480360381019061028b91906111c6565b6108aa565b60405161029d919061129a565b60405180910390f35b3480156102b257600080fd5b506102bb6108ce565b6040516102c8919061129a565b60405180910390f35b6102d96108d4565b005b3480156102e757600080fd5b5061030260048036038101906102fd91906111c6565b610a12565b60405161030f9190611234565b60405180910390f35b600260009054906101000a900473ffffffffffffffffffffffffffffffffffffffff1673ffffffffffffffffffffffffffffffffffffffff163373ffffffffffffffffffffffffffffffffffffffff16146103a8576040517f08c379a000000000000000000000000000000000000000000000000000000000815260040161039f9061133c565b60405180910390fd5b80600a60006101000a81548160ff021916908360ff1602179055506000600a60009054906101000a900460ff1660ff1603610418576040517f08c379a000000000000000000000000000000000000000000000000000000000815260040161040f906113ce565b60405180910390fd5b6000610422610a51565b61042d576007610430565b60045b9050600061043c610a51565b61044757600861044a565b60055b905060005b82805490508110156105315760008382815481106104705761046f6113ee565b5b9060005260206000200160009054906101000a900473ffffffffffffffffffffffffffffffffffffffff16905060008383815481106104b2576104b16113ee565b5b9060005260206000200154905060006104d2826104cd610a83565b610ab5565b90508273ffffffffffffffffffffffffffffffffffffffff166108fc829081150290604051600060405180830381858888f1935050505015801561051a573d6000803e3d6000fd5b5050505080806105299061144c565b91505061044f565b5061053a610b0c565b505050565b6007818154811061054f57600080fd5b906000526020600020016000915054906101000a900473ffffffffffffffffffffffffffffffffffffffff1681565b6001543410156105c3576040517f08c379a00000000000000000000000000000000000000000000000000000000081526004016105ba906114e0565b60405180910390fd5b6000546003546105d39190611500565b421115610615576040517f08c379a000000000000000000000000000000000000000000000000000000000815260040161060c906115a2565b60405180910390fd5b6004339080600181540180825580915050600190039060005260206000200160009091909190916101000a81548173ffffffffffffffffffffffffffffffffffffffff021916908373ffffffffffffffffffffffffffffffffffffffff160217905550600534908060018154018082558091505060019003906000526020600020016000909190919091505534600660008282546106b39190611500565b92505081905550565b600260009054906101000a900473ffffffffffffffffffffffffffffffffffffffff1681565b600260009054906101000a900473ffffffffffffffffffffffffffffffffffffffff1673ffffffffffffffffffffffffffffffffffffffff163373ffffffffffffffffffffffffffffffffffffffff1614610772576040517f08c379a00000000000000000000000000000000000000000000000000000000081526004016107699061133c565b60405180910390fd5b61077a610d63565b610782610eca565b61078a610b0c565b565b6005818154811061079c57600080fd5b906000526020600020016000915090505481565b600260009054906101000a900473ffffffffffffffffffffffffffffffffffffffff1673ffffffffffffffffffffffffffffffffffffffff163373ffffffffffffffffffffffffffffffffffffffff1614610840576040517f08c379a00000000000000000000000000000000000000000000000000000000081526004016108379061133c565b60405180910390fd5b610848610d63565b610850610eca565b600260009054906101000a900473ffffffffffffffffffffffffffffffffffffffff1673ffffffffffffffffffffffffffffffffffffffff16ff5b600a60009054906101000a900460ff1681565b60035481565b60065481565b600881815481106108ba57600080fd5b906000526020600020016000915090505481565b60095481565b600154341015610919576040517f08c379a0000000000000000000000000000000000000000000000000000000008152600401610910906114e0565b60405180910390fd5b6000546003546109299190611500565b42111561096b576040517f08c379a0000000000000000000000000000000000000000000000000000000008152600401610962906115a2565b60405180910390fd5b6007339080600181540180825580915050600190039060005260206000200160009091909190916101000a81548173ffffffffffffffffffffffffffffffffffffffff021916908373ffffffffffffffffffffffffffffffffffffffff16021790555060083490806001815401808255809150506001900390600052602060002001600090919091909150553460096000828254610a099190611500565b92505081905550565b60048181548110610a2257600080fd5b906000526020600020016000915054906101000a900473ffffffffffffffffffffffffffffffffffffffff1681565b600060016002811115610a6757610a666115c2565b5b60ff16600a60009054906101000a900460ff1660ff1614905090565b600060016002811115610a9957610a986115c2565b5b60ff16600a60009054906101000a900460ff1660ff1614905090565b60008082610ac557600654610ac9565b6009545b9050600083610ada57600954610ade565b6006545b9050808583610aed91906115f1565b610af7919061167a565b85610b029190611500565b9250505092915050565b600260009054906101000a900473ffffffffffffffffffffffffffffffffffffffff1673ffffffffffffffffffffffffffffffffffffffff163373ffffffffffffffffffffffffffffffffffffffff1614610b9c576040517f08c379a0000000000000000000000000000000000000000000000000000000008152600401610b939061133c565b60405180910390fd5b600067ffffffffffffffff811115610bb757610bb66116ab565b5b604051908082528060200260200182016040528015610be55781602001602082028036833780820191505090505b5060049080519060200190610bfb929190611031565b50600067ffffffffffffffff811115610c1757610c166116ab565b5b604051908082528060200260200182016040528015610c455781602001602082028036833780820191505090505b5060059080519060200190610c5b9291906110bb565b506000600681905550600067ffffffffffffffff811115610c7f57610c7e6116ab565b5b604051908082528060200260200182016040528015610cad5781602001602082028036833780820191505090505b5060079080519060200190610cc3929190611031565b50600067ffffffffffffffff811115610cdf57610cde6116ab565b5b604051908082528060200260200182016040528015610d0d5781602001602082028036833780820191505090505b5060089080519060200190610d239291906110bb565b50600060098190555060006002811115610d4057610d3f6115c2565b5b600a60006101000a81548160ff021916908360ff16021790555042600381905550565b600260009054906101000a900473ffffffffffffffffffffffffffffffffffffffff1673ffffffffffffffffffffffffffffffffffffffff163373ffffffffffffffffffffffffffffffffffffffff1614610df3576040517f08c379a0000000000000000000000000000000000000000000000000000000008152600401610dea9061133c565b60405180910390fd5b60008060008092505b600480549050831015610ec55760048381548110610e1d57610e1c6113ee565b5b9060005260206000200160009054906101000a900473ffffffffffffffffffffffffffffffffffffffff16905060058381548110610e5e57610e5d6113ee565b5b906000526020600020015491508073ffffffffffffffffffffffffffffffffffffffff166108fc839081150290604051600060405180830381858888f19350505050158015610eb1573d6000803e3d6000fd5b508280610ebd9061144c565b935050610dfc565b505050565b600260009054906101000a900473ffffffffffffffffffffffffffffffffffffffff1673ffffffffffffffffffffffffffffffffffffffff163373ffffffffffffffffffffffffffffffffffffffff1614610f5a576040517f08c379a0000000000000000000000000000000000000000000000000000000008152600401610f519061133c565b60405180910390fd5b60008060008092505b60078054905083101561102c5760078381548110610f8457610f836113ee565b5b9060005260206000200160009054906101000a900473ffffffffffffffffffffffffffffffffffffffff16905060088381548110610fc557610fc46113ee565b5b906000526020600020015491508073ffffffffffffffffffffffffffffffffffffffff166108fc839081150290604051600060405180830381858888f19350505050158015611018573d6000803e3d6000fd5b5082806110249061144c565b935050610f63565b505050565b8280548282559060005260206000209081019282156110aa579160200282015b828111156110a95782518260006101000a81548173ffffffffffffffffffffffffffffffffffffffff021916908373ffffffffffffffffffffffffffffffffffffffff16021790555091602001919060010190611051565b5b5090506110b79190611108565b5090565b8280548282559060005260206000209081019282156110f7579160200282015b828111156110f65782518255916020019190600101906110db565b5b5090506111049190611108565b5090565b5b80821115611121576000816000905550600101611109565b5090565b600080fd5b600060ff82169050919050565b6111408161112a565b811461114b57600080fd5b50565b60008135905061115d81611137565b92915050565b60006020828403121561117957611178611125565b5b60006111878482850161114e565b91505092915050565b6000819050919050565b6111a381611190565b81146111ae57600080fd5b50565b6000813590506111c08161119a565b92915050565b6000602082840312156111dc576111db611125565b5b60006111ea848285016111b1565b91505092915050565b600073ffffffffffffffffffffffffffffffffffffffff82169050919050565b600061121e826111f3565b9050919050565b61122e81611213565b82525050565b60006020820190506112496000830184611225565b92915050565b600061125a826111f3565b9050919050565b61126a8161124f565b82525050565b60006020820190506112856000830184611261565b92915050565b61129481611190565b82525050565b60006020820190506112af600083018461128b565b92915050565b6112be8161112a565b82525050565b60006020820190506112d960008301846112b5565b92915050565b600082825260208201905092915050565b7f596f7520617265206e6f7420746865206d616e616765722e0000000000000000600082015250565b60006113266018836112df565b9150611331826112f0565b602082019050919050565b6000602082019050818103600083015261135581611319565b9050919050565b7f5765617468657220686173206e6f74206265656e20616e6e6f756e636564207960008201527f65742e0000000000000000000000000000000000000000000000000000000000602082015250565b60006113b86023836112df565b91506113c38261135c565b604082019050919050565b600060208201905081810360008301526113e7816113ab565b9050919050565b7f4e487b7100000000000000000000000000000000000000000000000000000000600052603260045260246000fd5b7f4e487b7100000000000000000000000000000000000000000000000000000000600052601160045260246000fd5b600061145782611190565b91507fffffffffffffffffffffffffffffffffffffffffffffffffffffffffffffffff82036114895761148861141d565b5b600182019050919050565b7f4d696e696d756d2062657420697320302e30312065746865722e000000000000600082015250565b60006114ca601a836112df565b91506114d582611494565b602082019050919050565b600060208201905081810360008301526114f9816114bd565b9050919050565b600061150b82611190565b915061151683611190565b9250827fffffffffffffffffffffffffffffffffffffffffffffffffffffffffffffffff0382111561154b5761154a61141d565b5b828201905092915050565b7f54696d6520657870697265642e20416374696f6e2072656a65637465642e0000600082015250565b600061158c601e836112df565b915061159782611556565b602082019050919050565b600060208201905081810360008301526115bb8161157f565b9050919050565b7f4e487b7100000000000000000000000000000000000000000000000000000000600052602160045260246000fd5b60006115fc82611190565b915061160783611190565b9250817fffffffffffffffffffffffffffffffffffffffffffffffffffffffffffffffff04831182151516156116405761163f61141d565b5b828202905092915050565b7f4e487b7100000000000000000000000000000000000000000000000000000000600052601260045260246000fd5b600061168582611190565b915061169083611190565b9250826116a05761169f61164b565b5b828204905092915050565b7f4e487b7100000000000000000000000000000000000000000000000000000000600052604160045260246000fdfea2646970667358221220671d48ea943326cc4c64dc868db3e538fc19762a98f9573948f5484bc58dc8a364736f6c634300080d0033",
  "immutableReferences": {},
  "source": "pragma solidity ^0.8.0;\n\ncontract WeatherBet {\n    // Tunable variables\n    uint256 private VALID_WINDOW = 24 hours;\n    uint256 private MINIMUM_BET = 0.01 ether;\n\n    address public manager;\n    uint256 public createdTime; // backend needs to ensure this is called at the right time\n\n    address payable[] public rainBetsPlayers;\n    uint256[] public rainBetsAmount;\n    uint256 public totalBetsonRain;\n\n    address payable[] public noRainBetsPlayers;\n    uint256[] public noRainBetsAmount;\n    uint256 public totalBetsonNoRain;\n\n    enum Weather {\n        unannounced, // 0\n        rain, // 1\n        noRain // 2\n    }\n\n    uint8 public finalWeather;\n\n    constructor() {\n        manager = msg.sender;\n        createdTime = block.timestamp;\n    }\n\n    modifier restricted() {\n        require(msg.sender == manager, \"You are not the manager.\");\n        _;\n    }\n\n    modifier hasSufficientFund() {\n        require(msg.value >= MINIMUM_BET, \"Minimum bet is 0.01 ether.\");\n        _;\n    }\n\n    modifier isValidTime() {\n        require(\n            block.timestamp <= createdTime + VALID_WINDOW,\n            \"Time expired. Action rejected.\"\n        );\n        _;\n    }\n\n    function enterWithRain() public payable hasSufficientFund isValidTime {\n        rainBetsPlayers.push(payable(msg.sender));\n        rainBetsAmount.push(msg.value);\n        totalBetsonRain += msg.value;\n    }\n\n    function enterWithNoRain() public payable hasSufficientFund isValidTime {\n        noRainBetsPlayers.push(payable(msg.sender));\n        noRainBetsAmount.push(msg.value);\n        totalBetsonNoRain += msg.value;\n    }\n\n    function isRain() private view returns (bool) {\n        return finalWeather == uint8(Weather.rain);\n    }\n\n    function getWonAmount(uint256 originalBet, bool rained)\n        private\n        view\n        returns (uint256)\n    {\n        uint256 losingTotalBet = rained ? totalBetsonNoRain : totalBetsonRain;\n        uint256 winningTotalBet = rained ? totalBetsonRain : totalBetsonNoRain;\n\n        return originalBet + (losingTotalBet * originalBet) / winningTotalBet;\n    }\n\n    function hasRained() private view returns (bool) {\n        return finalWeather == uint8(Weather.rain);\n    }\n\n    function payout(uint8 _finalWeather) public restricted {\n        finalWeather = _finalWeather;\n        require(finalWeather != 0, \"Weather has not been announced yet.\");\n\n        address payable[] storage winningPlayers = isRain()\n            ? rainBetsPlayers\n            : noRainBetsPlayers;\n        uint256[] storage winningBetAmount = isRain()\n            ? rainBetsAmount\n            : noRainBetsAmount;\n\n        for (uint256 i = 0; i < winningPlayers.length; i++) {\n            address payable winner = winningPlayers[i];\n            uint256 originalBet = winningBetAmount[i];\n\n            uint256 wonAmout = getWonAmount(originalBet, hasRained());\n\n            winner.transfer(wonAmout);\n        }\n\n        resetBet();\n    }\n\n    function sendOriginalBetBackToRain() private restricted {\n        uint256 i;\n        uint256 originalBet;\n        address payable player;\n\n        // return money to those betting on rains\n        for (i = 0; i < rainBetsPlayers.length; i++) {\n            player = rainBetsPlayers[i];\n            originalBet = rainBetsAmount[i];\n\n            player.transfer(originalBet);\n        }\n    }\n\n    function sendOriginalBetBackToNoRain() private restricted {\n        uint256 i;\n        uint256 originalBet;\n        address payable player;\n\n        // return money to those betting on no rains\n        for (i = 0; i < noRainBetsPlayers.length; i++) {\n            player = noRainBetsPlayers[i];\n            originalBet = noRainBetsAmount[i];\n\n            player.transfer(originalBet);\n        }\n    }\n\n    function cancelBet() public restricted {\n        sendOriginalBetBackToRain();\n        sendOriginalBetBackToNoRain();\n        resetBet();\n    }\n\n    function resetBet() private restricted {\n        rainBetsPlayers = new address payable[](0);\n        rainBetsAmount = new uint256[](0);\n        totalBetsonRain = 0;\n\n        noRainBetsPlayers = new address payable[](0);\n        noRainBetsAmount = new uint256[](0);\n        totalBetsonNoRain = 0;\n\n        finalWeather = uint8(Weather.unannounced);\n        createdTime = block.timestamp;\n    }\n\n    function destroy() public restricted {\n        sendOriginalBetBackToRain();\n        sendOriginalBetBackToNoRain();\n        selfdestruct(payable(manager));\n    }\n}\n",
  "sourcePath": "/Users/jacky_wong/Columbia_Mac/02_Blockchain/WeatherBet/contracts/WeatherBet.sol",
  "compiler": {
    "name": "solc",
    "version": "0.8.13+commit.abaa5c0e.Emscripten.clang"
  },
  "schemaVersion": "3.4.7",
  "updatedAt": "2022-05-11T02:15:49.866Z",
  "devdoc": {
    "kind": "dev",
    "methods": {},
    "version": 1
  },
  "userdoc": {
    "kind": "user",
    "methods": {},
    "version": 1
  }
}